:1000000060E5002005570000F5C2020041570000DE
:100010004157000041570000415700000000000018
:100020000000000000000000000000006954000013
:1000300041570000000000001D540000D1C2020022
:10004000C5560000C5560000C5560000C556000044
:10005000C5560000C5560000C5560000C556000034
:10006000C5560000C5560000C5560000C556000024
:10007000C5560000C5560000C5560000C556000014
:10008000C5560000C5560000C5560000C556000004
:10009000C5560000C5560000C5560000C5560000F4
:1000A000C5560000C5560000C5560000C5560000E4
:1000B000C5560000C5560000C5560000C5560000D4
:1000C000C5560000C5560000C5560000C5560000C4
:1000D000C5560000C5560000C5560000C5560000B4
:1000E000C5560000C5560000C5560000C5560000A4
:1000F000C5560000C5560000C5560000C556000094
:1001000001F0FF01102A2BDB10F0070F08D010F8C8
:10011000013B013A8B422DD010F0070F42B3F6D1CC
:10012000F0B441EA012141EA014122F007047FF0E5
:1001300000070023F0E80256083C85EA010586EA3C
:10014000010685FA47F5A3FA87F586FA47F6A5FA78
:1001500087F68EB9EED1F0BC01F0FF0102F0070284
:1001600032B110F8013B013A83EA010313B1F8D12F
:100170000020704701387047002D06BF3546033810
:10018000073815F0010F07D1013015F4807F02BF49
:10019000013015F4C03F0130F0BC0138704700BF9A
:1001A0007BB972B90029BEBF00204FF0004106E0C4
:1001B00008BF00281CBF6FF000414FF0FF3000F077
:1001C000B9B9ADF1080C6DE904CE002909DB002BAB
:1001D0001ADB00F04DF8DDF804E0DDE9022304B09D
:1001E0007047404261EB4101002B1BDB00F040F8FF
:1001F000DDF804E0DDE9022304B0404261EB410197
:10020000524263EB43037047524263EB430300F0F7
:100210002FF8DDF804E0DDE9022304B0404261EB91
:1002200041017047524263EB430300F021F8DDF8CF
:1002300004E0DDE9022304B0524263EB430370475C
:1002400053B94AB9002908BF00281CBF4FF0FF313D
:100250004FF0FF3000F06EB9ADF1080C6DE904CE3F
:1002600000F006F8DDF804E0DDE9022304B0704791
:100270002DE9F047089D0E4604468C46002B40F0C1
:1002800081808A42174645D9B2FA82F24AB1C2F158
:10029000200106FA02F320FA01F1974041EA030C2B
:1002A00094404FEA174E230CBCFBFEF6B9B20EFB8E
:1002B00016CC43EA0C4306FB01F0984209D9FB181F
:1002C00006F1FF3C80F01581984240F21281023E17
:1002D0003B441B1AA4B2B3FBFEF00EFB103344EAFE
:1002E000034400FB01F1A14209D93C1900F1FF339D
:1002F00080F00181A14240F2FE8002383C44641A41
:1003000040EA064000211DB1D4400023C5E9004366
:10031000BDE8F08702B9FFDEB2FA82F2002A4FD1BF
:10032000CB1B4FEA174E1FFA87F80121B3FBFEFCE7
:10033000260C0EFB1C3346EA034608FB0CF3B342C3
:1003400007D9BE190CF1FF3002D2B34200F2EB80A4
:100350008446F61AA3B2B6FBFEF00EFB106643EA23
:10036000064408FB00F8A04507D93C1900F1FF330B
:1003700002D2A04500F2D2801846A4EB080440EA5D
:100380000C40C0E78B4208D9002D00F0AF8000215F
:10039000C5E900060846BDE8F087B3FA83F10029F5
:1003A00049D1B34202D3824200F2BB80841A66EB89
:1003B000030301209C46002DAAD0C5E9004CA7E705
:1003C000C2F120039740D8409140DE404FEA174EDB
:1003D00008434FEA104CB6FBFEF11FFA87F80EFBFC
:1003E00011664CEA064601FB08F3B34204FA02F434
:1003F00009D9BE1901F1FF3C80F08E80B34240F272
:100400008B8002393E44F31A86B2B3FBFEF00EFB3A
:10041000103346EA034600FB08F3B34207D9BE197E
:1004200000F1FF3C74D2B34272D902383E44F31A51
:1004300040EA01417AE7C1F1200703FA01F422FA08
:1004400007F31C4320FA07F906FA01F34FEA144CAC
:10045000FE4049EA03094FEA1943B6FBFCFE1FFAC6
:1004600084F80CFB1E6643EA06460EFB08FAB2450A
:1004700002FA01F200FA01F308D9A6190EF1FF30D1
:1004800048D2B24546D9AEF1020E2644A6EB0A0682
:100490001FFA89F9B6FBFCF00CFB106649EA064628
:1004A00000FB08F8B04507D9A61900F1FF3C2DD292
:1004B000B0452BD90238264440EA0E40A6EB080688
:1004C000A0FB02894E45C446CE4618D315D075B35D
:1004D000B3EB0C0266EB0E0606FA07F722FA01F3FD
:1004E000CE401F43C5E90076002111E72946284682
:1004F0000EE76646EDE6184601E74345E7D2B8EB5E
:10050000020C69EB04040138A646E0E76046D3E735
:1005100060468CE78646B9E7614674E702383C449A
:100520002BE7084647E7ACF1020C3E4411E72946A9
:10053000EEE600BF704700BF10F8012B11F8013B39
:10054000012A28BF9A42F7D0D01A7047034613F801
:10055000012B002AFBD1181A013870470000000057
:1005600001232DE9F04180F825304FF47A73A1FB87
:10057000036700234361264B5968044600F11402C7
:1005800041BBC3E900222CF09FF8224AA06100235E
:1005900030463946FFF754FE1E49206201FB1060C9
:1005A000E0611D482CF09DF8054620B1236A43BB4D
:1005B000E369984225DD18482EF06CFE236A002B73
:1005C0000BDD55B910A3D3E90023BDE8F041124873
:1005D00006F0B2BA0A605A60D5E7E1694FF400400C
:1005E00021EAE17140F2E7340025C0FB01454FF4F8
:1005F0007A72002320462946FFF722FE02460B4668
:10060000E3E7BDE8F08100BF05C64D6210000000C1
:10061000B87800209BFFFF7F200F00200B0706D536
:10062000034BC35C03F00303012B08BF203070476A
:10063000D65E040030B50A4C0A44914200D130BD68
:1006400011F8013B58400309E35C83EA0013DDB273
:10065000C3F30313E05C80EA0510C0B2EDE700BF0E
:100660002F1404002DE9F04F87B00F461946109B58
:100670009DF844B09DF848A01F4C0646142510462E
:1006800098464FEAE37950EA010319D1142D139CDF
:1006900014BF013530232C4408BF8DF81430152CBD
:1006A0001BD0153C002C1ADC1DF80500394601351D
:1006B000B047152DF8D1002C19DC07B0BDE8F08F3C
:1006C00042464B46FFF7BCFDA25C0DF80520844670
:1006D0000B4660461946013DD5E70024E4E7BBF12F
:1006E000000FE1D039465046B047013CDAE73946C1
:1006F0005046B047013CDEE73F1404000B6801336D
:100700000B60014B1B68184700000020014B18606C
:10071000704700BF000000202DE9F04F002687B091
:1007200005468B461C4602F1FF394FF0FF3837462D
:10073000002307E06BB9252800F0FC80594604939C
:10074000A847049B19F8010F0028F3D107B0BDE8B2
:10075000F08F7A280AD8622810D8302852D045D88D
:10076000252800F0E5802D2800F0EA805946252054
:10077000A84799F800005946A847D9E7A0F16302B5
:10078000172AF3D801A151F822F000BF290900006F
:100790004D0800006D0700006D0700006D070000A8
:1007A0002F0800004D0800006D0700006D070000D5
:1007B0002F0800006D0700006D0700006D070000A6
:1007C000B10800006D0700006D070000F30800008D
:1007D0006D0700004D0800006D0700006D07000068
:1007E000F50700006D0700002F080000392815D913
:1007F0005828BBD199F80030702B63D154F8042BE2
:1008000000236AE0B8F1000F0BDA002F00F09A80A5
:10081000A0F13008002F08BF022793E7B8F1000FBE
:10082000F6DB0A2202FB0808A8F13008F2E7682884
:1008300003D1682E06D1482684E76C2802D16C2E9D
:1008400000F08280002E91D106467BE77A2E03D1FC
:1008500054F8042BD31708E06C2EF9D04C2EF7D1A6
:10086000073424F00704F4E8022375280FD0002A87
:1008700073F100010BDA59462D20CDE90423A84776
:10088000DDE90423524263EB430308F1FF38F91E0C
:1008900018BF0121012F0CBF30202020CDE9020814
:1008A00001910A21009128465946FFF7DBFE3FE7F8
:1008B00059463020A84759467820A8474FF00808E5
:1008C000012797E76C2E99D04C2E97D1E31D23F08A
:1008D00007031C465B6854F8082BF91E18BF01215A
:1008E000012F0CBF302020200191CDE902081021FA
:1008F000D8E7A2465AF8043B1C46214614F8010BDF
:1009000040B9032F22D1CC1AA8EB0404002C06DC3A
:1009100054460DE759460493A847049BEDE7594612
:100920002020A847013CF1E754F8040B594623E77F
:10093000594621E71E461F464FF0FF38012301E7C5
:100940000327FFE60127FDE64C26FBE65446034657
:10095000F8E600BF07B50B460021024601910348A7
:1009600001A9FFF7D9FE03B05DF804FBFD06000006
:1009700030B585B0CDE90101044600250548039551
:1009800001A9FFF7C9FEDDE902309842B8BF25543E
:1009900005B030BD15A102002DE9F84FB0F81C904C
:1009A00019F00808044693460DD001290CBF49F000
:1009B000100949F02009A0F81C908BF31188BFF3AF
:1009C0006F8FBDE8F88F09F00709022907D120468B
:1009D00029F0CDFB0028F0D00128A38B50D1A769C6
:1009E000A18B002F15DA256821F00701C4E90088E2
:1009F00041F00101A1830026A18B01F0070ACA453D
:100A000002D0A368002B5CD10DB9002E74D0002356
:100A100058E001F007035A1F012A20D821F00701EE
:100A2000062B256889B2C4E900880CD1002D2B461D
:100A300038BF00232BB1E28B1B680132E283002B0D
:100A4000F8D141F00201A183204629F090FB06462F
:100A50000028D1D0A38B43F02003A383CBE7042B42
:100A60000CD121F0070189B2A183204629F07FFB38
:100A700005460028BFD041F02001A1830025BAE738
:100A8000032809D1226923F00703166843F00603FF
:100A9000A38300252F46AFE7042806D1226923F05F
:100AA0000703566843F00403F2E7052806D12269DC
:100AB00023F00703966843F00503E9E700252E4677
:100AC000E8E7012341F00801A1838BF31188BFF30C
:100AD0006F8F03BB002D33D116B121492046B0479B
:100AE0004FF02003EFF3118B83F31188BFF36F8F67
:100AF000A38B23F00803A383A38BDA0628D523F066
:100B00001003A3830121B4F81C9009F00709002900
:100B10007FF45BAF51E7A1680029DBD00B68D1F807
:100B200004B0002B38BF0023994652463B4620466E
:100B3000D847B9F1000FCDD0D9F800304946EEE7DB
:100B400029463B46524620462D6829F02CFBC1E73A
:100B500013F020011EBF23F02003A3830221D2E75C
:100B6000D3A1020030B51049104889B000222EF000
:100B700025FC0F4D0F4900220023CDE90623002458
:100B80000E23CDE90334CDE901440B4B00944FF41F
:100B90004072284612F034F80849284611F086FFC2
:100BA000204609B030BD00BFC10B0000580700202F
:100BB00090070020D0B00020FD110000791804003B
:100BC000014811F0D3BE00BF90050020F0B50546E6
:100BD0000F4E002003460246012715F8014B0CB1C9
:100BE0008B4200D3F0BD252C02D182F00102F4E744
:100BF000002AF2D014F806C01CF0030FEDD0732CBD
:100C000004BF07FA03F2104301330022E5E700BFF7
:100C1000D65E040038B500F053FB1348134C29F09E
:100C200099FE13491348042334222EF09CF8124BEA
:100C3000124A1A604FF4004000F08AFD1048114B30
:100C40001B1ADB0800210430994200D138BD10F88E
:100C50003120256802F0070225F007052A4344F8F1
:100C6000042B0131F0E700BF3C730020A0030020FB
:100C7000A0F60020447300200400002093A9020085
:100C800098DA0300D0DB0300F8B50F4BBFF35B8F9E
:100C9000002553E8007F43E80052002AF9D1BFF352
:100CA0005B8F0A4C0A4E361B3611B54200DBF8BD8D
:100CB00063685B792BB12368DB6813B13946204642
:100CC000984701351034F0E734730020D0DB03007F
:100CD000F0DB0300064BBFF35B8F53E8002F0132BC
:100CE00043E800210029F8D1BFF35B8F704700BFB4
:100CF00034730020044A054B9B1AB1EBD30F34BF69
:100D000052F831000020704798DA0300D0DB03006E
:100D10002DE9F04715469846284A294BD21AB5EBDB
:100D2000D20F0646894606D3264B274A274840F26B
:100D3000F72112F0D7FAB0B9254B264FFF1A3F1111
:100D400004469A46BE4202DB2046BDE8F0870AEB25
:100D5000061043462A464946FFF7DAFF844238BF69
:100D600004460136EEE703EBC5031B491C794368D3
:100D70001A79072302EB420203FA02F0444551F8C4
:100D8000253028BF444623EA000304F0070000FA98
:100D900002F213430020032223FA02F606F00706AC
:100DA000B04202F1030238BF30461E2AF4D123F0CC
:100DB0000703034341F82530C6E700BFD0DB03003B
:100DC00098DA03007D1404002A150400501404006E
:100DD000D0DB0300F0DB0300A0030020F8B5094CD2
:100DE000094BE41A06460F46E4080025A54200D147
:100DF000F8BD00212A463B463046FFF789FF013502
:100E0000F4E700BFD0DB030098DA03000C4BC31AF1
:100E100070B51B114668044601330D463371114607
:100E2000FFF7DCFF6368074C1D6001225A712278CE
:100E300012B9054811F09AFD0123237070BD00BF5F
:100E4000D0DB030050A200209005002070B5164BA7
:100E5000164C1B1B9F2B4FEA231606D9144B154A21
:100E6000154840F20B2112F03DFA144BBFF35B8F93
:100E700053E8005F6A1C43E800210029F8D1BFF362
:100E80005B8F0DB9B54200D170BD237B43B12368A0
:100E90005B6903B19847042200212046FFF7B6FFA3
:100EA00001351034EEE700BFF0DB0300D0DB0300B8
:100EB0009A1404004F1504005014040038730020E5
:100EC00010B50E490E4C641AB2EBD40F06D30D4B7D
:100ED0000D4A0E4840F2653112F004FA53B14368EE
:100EE0000B49187900EB400351F82200D84000F07C
:100EF000070010BD01EBC2021079FAE798DA03008F
:100F0000D0DB03007D1404004015040050140400DD
:100F1000A0030020174B984273B5044602D3164B2A
:100F2000984221D315480022002301A910F086FF22
:100F30000546E0B90122019BBFF35B8F53E8001F18
:100F400043E800200028F9D1BFF35B8F019E331DD9
:100F50002D22184621462EF0B6FC7E22034686F846
:100F6000312086F832501C46204602B070BD044B3A
:100F7000F9E700BFDCD903003C7C04004473002087
:100F8000CD14040048B1054B984205D3D0339842A4
:100F90002CBF00200120704700207047A0F60020E1
:100FA0002DE9F04F554B1B7885B0054603B960B36A
:100FB0004FF02003EFF3118683F31188BFF36F8F97
:100FC0004F4829F0D7FC044686F31188BFF36F8F92
:100FD00078B1BFF35B8F4B4B53E8002F013A43E8E6
:100FE00000210029F8D1BFF35B8F95B1204629F08D
:100FF000B2FD25B9444B1B680BB1FFF745FE4048D5
:1010000029F0B6FC051E18BF0125284605B0BDE82D
:10101000F08F3E4B1B78CBB9237ADA0716D429F030
:10102000ADFD8046204629F074FD01464046FFF79D
:10103000CDFD374F374BDFF8FCB0DB1BDB080393EC
:10104000354BDB1B06464FEAD30A3EB9334E344BD1
:101050009B1B4FEA23194FF000084BE0B6FA86F1CC
:10106000C1F11F094946204629F056FD2D4B9842F3
:10107000014602D32C4B98421ED30846FFF782FF4D
:101080000246C8B9294B994216D063890398990939
:10109000B0EB931FDBF8003088BF57F831205B07B7
:1010A0000AD04FEA8A1343F00103ADF8003020481C
:1010B0004346494629F0B0FC012101FA09F126EA2C
:1010C0000106C2E773685B798BB1A77A6289C7F3BF
:1010D000C201012392093046FFF7F2FE07F007072D
:1010E000B84204D3336821461B683046984708F15C
:1010F00001081036C845E5DB78E700BF50A20020A4
:101100003C730020307300203473002051A2002073
:1011100098DA0300D0DB0300B8DA0300D0DB030069
:10112000F0DB0300DCD903003C7C0400CD14040098
:10113000E7140400B0030020294B73B51B684181FC
:1011400004469847274DE060BFF35B8F55E8003FAA
:10115000013345E80032002AF8D1BFF35B8F4FF02E
:101160002003EFF3118683F31188BFF36F8F1E48BE
:10117000214629F0F3FB86F31188BFF36F8F1B4BD9
:101180001B7883B14FF02003EFF3118483F31188B0
:10119000BFF36F8F0020FFF703FF84F31188BFF3C5
:1011A0006F8F02B070BD124A2B681268002AF8D007
:1011B000012B0AD100220023CDE900230D484FF472
:1011C0000042002311F0AAFFEBE70A2BE9D10948FE
:1011D0002EF000F9084802B0BDE8704011F0C6BB1F
:1011E00004000020307300203C73002051A2002036
:1011F00060730020580700209005002010B5FFF70D
:1012000025FE11F0ADFB0C4B186030B10B4B1B6889
:10121000092B02DD0A4811F0A9FB094C0020FFF759
:10122000BFFE0028FAD14FF0FF324FF0FF332046C7
:1012300011F0C2FBF2E700BF6073002030730020A2
:1012400090050020F8B50E4F3D7875B90D4C0E4E47
:10125000FFF7FCFD361B3611B54207DB0020FFF718
:101260009FFE0028FAD101233B70F8BD63685B79CB
:101270001BB1236820461B69984701351034EBE702
:1012800051A20020D0DB0300F0DB030007B50438D7
:101290000190BFF35B8F50E8003F5A1E40E80021E9
:1012A0000029F8D1BFF35B8F012B03D1034801A9BB
:1012B00010F0F6FD03B05DF804FB00BF447300209E
:1012C0002023024902481A462DF04DBD70F7002038
:1012D0006473002037B50023094D01930120FFF707
:1012E0005FFE0446FFF7F6FC0022002301A9284612
:1012F00010F0A4FD08B1002CF0D1019803B030BD6E
:101300006473002007B500230193074800220023DF
:1013100001A910F093FD10B1FFF7DCFF01900198D7
:1013200003B05DF804FB00BF64730020F0B5037ADE
:10133000457A85B02D090190D8071CD4DDB1002471
:1013400026460198314629F0E7FB0746FFF71AFECB
:1013500070B134B9019B29461869FFF737FC044680
:1013600048B124FA06F3D90702D53846FFF78EFFB5
:101370000136AE42E5D3019B1A7A920704D55B6928
:10138000084C0393039B2BB9064801A910F088FD74
:1013900005B0F0BD1D6803A9204610F081FD03953E
:1013A000F0E700BF647300200EB403B503AB014641
:1013B00053F8042B04480193FFF7AEF9002002B064
:1013C0005DF804EB03B070477DAE02002DE9F04FED
:1013D00085B011F0020490469DF8387006461A4612
:1013E00001F0010901F0080507D011F0440F37D1D1
:1013F0003249FFF7D9FF01460C46B9F1000F0AD078
:101400002F4B304953F827202F4B3046002A08BF76
:101410001A46FFF7C9FF3DB12C4B2D4953F8272041
:101420003046FFF7C1FF0546B8F1000F43D0012356
:1014300003FA07F7274B17F0100F274F18BF1F4667
:10144000BDF840109DF83C00FFF754FC39460246B9
:101450003046FFF7A9FF2844204405B0BDE8F08FCF
:101460001E4B19680029C7D01D4B4FF4616E1B68D5
:10147000B2FBF3F34FF47A7CB3FBF1F4B4FBFEF26E
:101480000EFB124E01FB14340CFB04F44FF03C0A2B
:10149000B4FBF1FB01FB1B440CFB04F4BEFBFAF3B1
:1014A000B4FBF1F1CDE901B10AFB13E100910D4963
:1014B000FFF77AFF9FE7084FC2E700BF66150400F9
:1014C000D8DC0300431B040058150400ECDC0300C7
:1014D0008B150400621504005D1504008073002064
:1014E000847300206F15040038B50C46E1070546EB
:1014F00003D5084A0849FFF757FFE20608D4A306B8
:1015000028464CBF05490649BDE83840FFF74CBFA7
:1015100038BD00BF58150400431B0400191A04000D
:10152000161604002DE9F0471D46089B1746DA06FB
:1015300004460E4605D499064CBF2B492B49FFF7AC
:1015400033FFDFF8B0904FF00008A8452DDBDFF83F
:10155000A880DFF8A890DFF89CA00025BD4232D219
:10156000725D49462046FFF71FFF0135102D23D13C
:101570001F49DFF88080DFF88890DFF888A02046D8
:10158000FFF712FF0025AF4229D9725D12F809302A
:1015900013F0970F08BF2E2251462046FFF704FF95
:1015A0000135102D14D1BDE8F08749462046FFF7DC
:1015B000FBFE08F10108C8E76A07CFD15146204673
:1015C000FFF7F2FECAE741462046FFF7EDFECCE703
:1015D0006B07D8D141462046FFF7E6FED3E74146E8
:1015E0002046FFF7E1FEDBE7191A04001616040097
:1015F0009B1504009915040097150400911504002B
:10160000D65E0400556A04002DE9F0478B7A13F08A
:10161000070817468AB00A7A05460E4620D049893F
:10162000C3F3C2038909D243CDE900830291F36871
:1016300002F001023946FFF7C9FE8146347AE443DD
:1016400014F001040ED02946304629F0ADFAB8F165
:10165000000F2BD0424639462846FFF745FF25E0CC
:10166000C146EBE7B8F1000F26D12746EB68069399
:1016700006AA3B46A968304629F082FA069A6B68AA
:101680001A603AB1AB68134413F8014CA4F10A0391
:101690005C425C41284629F0E4FB069B1F44002B7A
:1016A000E4D11CB113492846FFF77EFE284629F0F5
:1016B000D8FB0AB0BDE8F087304629F05FFA0E4942
:1016C00002462846FFF770FE4FF0100A05AA23468F
:1016D00006A93046CDF814A029F052FA059A002A3E
:1016E000B8D04B46009706A92846FFF71BFF059B7D
:1016F0001C44EBE79D150400431B040073B5D0E9BF
:1017000000435D680F4A42F20F738B4228BF0B46BD
:101710006846052128F01EFD2B4606460A4920464C
:101720000B2229F034FA2B4632466946204629F02E
:101730002EFA06492B461B22204629F028FA02B031
:1017400070BD00BF212C0400DB150400BF15040090
:10175000084A10B50123084C13600021A04204D8A8
:1017600001B11360054B186010BD40085B000121FA
:10177000F4E700BF8473002040420F008073002014
:1017800000230428CB604B6098BF044B044A98BFE9
:1017900053F820308A600B60704700BF40DD0300C3
:1017A0001CDD03000023084A0B60CB604B608A609D
:1017B000064B074AD21AB0EB221F3EBF03EB0013C1
:1017C0009B680B60704700BF80DE0300D0DB030026
:1017D000F0DB03002DE9F347114C124DDFF8488090
:1017E000DFF84890DFF848A02D1B07462D11002692
:1017F000AE4203DB002002B0BDE8F0876268537997
:101800001279002B14BF43464B46CDE9003200212C
:10181000A3685246384629F06BFC01361034E7E7DE
:10182000D0DB0300F0DB0300E7150400EF15040034
:10183000F81504002DE9F74F214B224DED1A4B68A6
:101840005B7906460F46ED081BB91F4A042129F0B3
:101850004FFC1E4B1E4ADFF880A0DFF880B000214D
:10186000304629F045FC1B4A0021304629F040FC57
:101870000024AC4203D1002003B0BDE8F08F224623
:10188000012300213846FFF71BFB0023224619469F
:1018900080463846FFF714FB214681460020FFF7BB
:1018A00029FA5AF8292001925AF828200092034672
:1018B0005A460021304629F01BFC0134D9E700BF0D
:1018C00098DA0300D0DB0300191604002B1604007D
:1018D00037160400551604002CDD03009216040090
:1018E00010B50023054ACB600C464B608A60014668
:1018F0001846FFF7FFF9206010BD00BF1CDD030094
:101900002DE9F74F52F804BC184C194E00930746C6
:10191000584691468A46FEF719FE361B0246361196
:101920004FF00008B04508DB124A5B4602213846FA
:1019300029F0DEFB6FF0070513E0A168019258461D
:101940002DF0AFFF1034054618B1019A08F10108D7
:10195000E8E70649009C4B46524601EB0811384621
:10196000A047284603B0BDE8F08F00BFD0DB0300DE
:10197000F0DB0300A616040008B5024BFFF7C0FF1A
:10198000002008BD35180000014BFFF7B9BF00BFAC
:10199000B3AE0200014BFFF7B3BF00BFBBAE020006
:1019A000014BFFF7ADBF00BFA51A0000014BFFF7C9
:1019B000A7BF00BF37AF020010B5C369DB681C7951
:1019C0002CB9044A022129F093FB204610BD0120C6
:1019D000FCE700BFBB1604002DE9F04F2B4E1F465D
:1019E0002B4BF61A151E85B04FEAD60614BF2B46B0
:1019F000334602934B685B79804689461BB9254A7A
:101A0000042129F075FBDFF898A00024029B9C427A
:101A100002DB05B0BDE8F08FB5B357F824B0002362
:101A20009E4207D157F824301B4A0221404629F034
:101A30005FFB22E0194600200393FFF75BF9402289
:101A400059462DF02EFF039BC8B91A4600210E9B64
:101A50004846FFF75DF90E9B834283460DD085B95A
:101A600021462846FFF746F903465AF82B200092F4
:101A700004210A4A404629F03BFB0134C6E7013302
:101A8000CEE757F82430F0E72246DFE7D0DB03004B
:101A900098DA0300DF1604000A170400F4160400A5
:101AA0002CDD03002DE9F74FD3F804B0DFF850A088
:101AB0000646884691461D4600275AF8041B042214
:101AC00058462DF0EEFE044670B10137052FF4D1D3
:101AD0006B680A4A0221304629F00AFB6FF00704BE
:101AE000204603B0BDE8F08F009705F10803A9F187
:101AF000020241463046FFF76FFFF1E7241704006A
:101B00002CDD0300014B01221A70704762A20020F5
:101B1000024B034801221A7029F0A3B963A20020E6
:101B2000A8DE03000148FFF7E9BD00BFA8DE0300FF
:101B300010B508460C4628F0DFFF054821460F2265
:101B4000FFF762FD2046BDE8104029F004B800BF51
:101B5000A8DE0300054B1B781BB141F288302DF045
:101B600017BBA420002110F0DBBE00BF63A2002041
:101B70002DE9F84FDFF89090DFF890B007460E4659
:101B80000424CA4699F8003033B94FF0FF324FF0C1
:101B9000FF33584610F07AFA32463946002003F0F7
:101BA000C1FB9AF80030804613B9584610F0E6FAA7
:101BB000144DB8F1000F18D001232B709AF80030A3
:101BC00033B93046BDE8F88F5CB92C704FF0FF3464
:101BD000002003F0F3FB0028F3D02B78002BF3D187
:101BE000EFE7013CFFF7B6FFF2E72B7813B1013CBA
:101BF00004D12C702B78002BC4D1E2E7FFF7AAFFA9
:101C0000F8E700BF62A2002063A200200C050020BC
:101C100013B5044611F07EF8C0F307230193C0F317
:101C200007430093044A030E0021204629F060FA7E
:101C3000002002B010BD00BFDB1804002DE9784879
:101C400004462DF090FB4FF47A76A0FB06BC06FB11
:101C500001CC00254FEADB3242EA4C432046034ADE
:101C6000294629F045FA2846BDE87888F41804008A
:101C700010B5044603F0F2FA084A03460021204654
:101C800029F036FA064A2046002129F031FA0548A3
:101C9000214610F0D3FE002010BD00BF0319040040
:101CA00022190400051D000030B5014687B0044626
:101CB000114810F0C3FE114A002312F8011BAA2993
:101CC00003D10133B3F5006FF7D1C3F5006164228E
:101CD0004A43D20A002505924FF40062CDE903126F
:101CE000CDE901232046054B054A0095294629F0F8
:101CF000FFF9284607B030BDE11D0000A0E6002036
:101D00002C190400F0B587B0D0F8A07004460D4639
:101D10002DF040FA064610F023FE224B224A002EF8
:101D200008BF1E46214BCDE90046844218BF13462A
:101D3000002128461E4A29F0DBF9D4E90A23CDE91F
:101D4000022394F90E301B4A00930021237B28467E
:101D500029F0CEF9204610F0B9FE174A03460021BB
:101D6000284629F0C5F905A920462DF017FA0146A5
:101D700038B10346114A0021284629F0B9F907B0C5
:101D8000F0BD059A6423B81ACDE9002043430C4AFC
:101D9000B3FBF7F32846CDE902733B4629F0A8F9D7
:101DA000EDE700BF7219040099150400682B0400C8
:101DB0007519040081190400AB190400B719040057
:101DC000E419040010B5044603F062FA034A03461E
:101DD0000021204629F08CF9002010BD1B1A0400B8
:101DE000F0B5D0F8A07089B005460E4607A92DF0D1
:101DF000D5F9044638B10346104A0021304629F08F
:101E000077F909B0F0BD28462DF0C4F9079ADFF83C
:101E100034C0B91A002808BF60466423CDE9022106
:101E2000CDE900074B43064AB3FBF7F32146CDE962
:101E3000047330462B4629F05BF9E2E7B71904003A
:101E4000311A0400721904002DE9F0410E4A0F4CBA
:101E50000F4E104FDFF840800021054629F048F969
:101E6000B44202D10020BDE8F081A36853B13A46E4
:101E700000212846236829F03BF9424600212846E4
:101E800029F036F91034EBE7371B0400100300206B
:101E9000A0030020411B0400191A0400F8B50B4BE5
:101EA0000B4F53F821400131054653F821600020C3
:101EB000A64200D8F8BDA36833B1284623683A4645
:101EC000002129F015F901201034F1E7B8DF0300F3
:101ED000461B040010B51F4A0446002129F008F9EA
:101EE00002212046FFF7DAFF014618B91A4A2046B8
:101EF00029F0FEF8194A0021204629F0F9F80321BB
:101F00002046FFF7CBFF014618B9134A204629F0B7
:101F1000EFF8134A0021204629F0EAF80021204674
:101F2000FFF7BCFF014618B90B4A204629F0E0F83C
:101F30000C4A0021204629F0DBF801212046FFF75A
:101F4000ADFF014618B9044A204629F0D1F8002017
:101F500010BD00BF4C1B04005A1B0400621B040090
:101F6000701B04007F1B040038B58368002583F8CC
:101F700038509D865D868368D3F85832DB0304466B
:101F80000BD5084B084A042129F0C7FAA368D3F8F7
:101F9000582265F31042C3F858222046BDE8384065
:101FA00001F0DEB9DD1B0400431B040037B5836874
:101FB000D3F85822520604460D4608D5D3F85822C5
:101FC000C0686FF38612C3F8582229F0D1FBE3688A
:101FD000DB6863B99DB3A068383029F005F8A368C1
:101FE00078B303F1380103F59C702DF052FCA26820
:101FF000E0680DF106033832294629F0BCFB58B9D8
:10200000A06800F59C7138302DF043FCA068383092
:1020100028F0EAFFADF80600204629F0E2F90A4A66
:102020000A49606928F0E6FF204601F097F8A368A6
:10203000BDF806209A865A86204601F019F803B0AA
:1020400030BD83F83801D2E7DF1C0400431B0400D5
:102050002DE9F04F83689FB0DE69044600223833D3
:10206000CDE90522039329F0C2F9204629F081F930
:1020700018B99D49606928F0BDFFA06814220021AD
:1020800008302DF046FB204600F094FFA168E06880
:102090004A8E383129F0A6FB204629F071FD002E2A
:1020A00000F01A8133681193039B1293F3685BB3BA
:1020B00037460FCFA568DDF8148008350FC53B689B
:1020C0002B60B36823BB737CFE2B21D1377C08F1D6
:1020D0000103013F0593D6F804E0BEF1000F08D0DC
:1020E000B446BCE80F000CAD0FC5DCF800302B6027
:1020F000F246059B013305930DF148094FF0000BA3
:10210000CDF808B05D4670E04FF0FF379846E2E743
:102110004FF0FF37DFE7012A06D128B1734A0221C9
:10212000204629F0FAF975E0059B002B78D070491C
:10213000D9F80000FEF700FA40B9BAF1000F3FD11C
:102140006C4A0221204629F0E8F963E06A49D9F88F
:102150000000FEF7F1F90028EFD0059B002B5FD0BF
:10216000D9F800202946204601F034FC022835D158
:10217000029BABB1204629F027FDA268D169003946
:1021800018BF012111A80C2300EB8101383205A8EA
:1021900000F0E4FDA368DB6913B1059B01330593EF
:1021A000A0684369002B40F0AF80BAF1000F31D036
:1021B000C3689A450DD0CDF834A000F1080503E0BE
:1021C000A568CDF834A008350CAE0FCE0FC5336826
:1021D0002B60204628F01BFF01251DE003281FD09F
:1021E000059B0133059301230293069B012BBFD06E
:1021F000059B0C2BBCD8002FBAD0039A022349466A
:1022000006A800F0ABFDD9F804200392069A034615
:10221000002A80D16FF0070528461FB0BDE8F08F77
:10222000BBF1000F06D1D9F8001007AA304629F0FB
:1022300009F8054609F10409013F002D3AD0029B37
:102240004BB1EB683BB1204629F0D1F8204600F0B5
:102250000FFF2A4A75E7EB68ABB1AC46BCE80F004C
:10226000A668DDF8148008360FC6DCF8003033604D
:10227000AB6843B96B7CFE2B01BF2F7C08F10103D7
:1022800007F1FF370593D5F804C0BCF1000F08D063
:10229000AE46BEE80F000CAE0FC6DEF8003033606D
:1022A000E2462E4617B9069B022B9ED1059B0133B1
:1022B00005939AE7059B63B9A368DB690BB1DB68FB
:1022C0003BB90F4B00930F4A119B0221204629F086
:1022D00024F94FF0010BE5E7B2464FF0FF37B04667
:1022E0000DF144090AE700BF191A0400211C04007B
:1022F000351C04003F1C0400381C04005D1C040055
:102300008C1C0400BE390400059D037EA5EB080566
:10231000B3B1427E4FF6FF71FF2A08BF0A469D42C5
:1023200002D313449D420BD98368174A02212046E9
:1023300029F0F3F8204628F06AFE6FF015056BE7E8
:1023400000F53B7028F04EFEA368D3F8582242F007
:102350008002C3F8582211AA02EB880229465B6961
:10236000204698470546A068D0F858326FF3C71347
:10237000C0F858324FF0FF324FF0FF3300F53B709A
:1023800028F058FE48E700BFA01C04002DE9F04FDC
:102390008368BFF35B8FABB0044603F5167353E855
:1023A000002F42F0080243E800210029F7D1BFF3D3
:1023B0005B8FA3681B79022B40F0258300230B93CE
:1023C0006068036801221D690DF12B010BABA84762
:1023D0000B9B002B00F017839DF92B209DF82B30D1
:1023E000002AEDDBA0684179012900F088820229EA
:1023F00000F09B82002940F004830D2BD0F8582276
:102400001BD00A2B19D061F30F22C0F85822092BD8
:1024100056D03BD8002BD3D0082B00F0D681BE4A33
:102420009A5C12F0970FD0F8582200F0DD8142F04C
:102430004002C0F858221946EFE012F47F4F05D051
:10244000D0F85822C2F307229342E0D1D0F85822A4
:1024500063F30F22C0F85822428E9AB9D0F858324E
:1024600062F38613C0F85832E06829F081F9AB496D
:10247000606928F0BFFDA36802221A712046FFF7A9
:1024800073FD9DE72046FFF7E3FDF4E71B2B14D017
:102490007F2BC4D1D0F858325F0791D5D0F858328D
:1024A00043F04003C0F85832D0F858329E0600F18D
:1024B0009781204629F072F882E7012343717FE774
:1024C000D0F858325E077FF57BAFD0F8583243F032
:1024D0004003C0F85832438EFF2B3FF471AF828E19
:1024E00000F1380100F59C702DF0D8F8A268938EA9
:1024F0001344002183F8381102F59C721DA90C23A6
:102500000DA800F02BFC0D99A06849B1838E0344FF
:1025100093F83720804BD35C1D0759D4012956D13D
:102520000023C6690C930C9B2AAA02EB83030025A7
:1025300053F834AC504628F057FDA8468146049520
:102540002F4618AA3946304600F0D4FC83460028AE
:102550004BD1012D6AD10C9B2AAA02EB830353F8BD
:10256000340C28F041FDA268054608324146304649
:1025700000F0C0FC0646006828F036FD854206D013
:102580003168421B92B22944204629F005F8A3681D
:102590009A8E1A4492F838105F4A8A5C12F0080248
:1025A0003FD1D3F85812C90736D5D3F8581262F381
:1025B0000001C3F858122046202100F09FFEA268B7
:1025C000D2F8583243F00103C2F85832F8E6013924
:1025D000002301930EAB0093C0690CAB1DAA28F039
:1025E00048FE064600289ED1EAE6DBF800004A468F
:1025F00051462DF056F968B9DBF80000FDF7A6FF4B
:10260000049B834238BF03469BB2002D08BFB846E7
:1026100004930135013794E72021204600F06EFE37
:10262000CEE60121204628F0B8FEC9E67FF6C8AE06
:102630000C9B2AAA02EB830353F834AC504628F0D3
:10264000D3FCA3680690A3F830B0DFF8D4B00595AA
:10265000CDF80C80A26803990832304600F04AFC9D
:10266000039B013307460393BAF1000F5AD13B682D
:10267000002B61D1A2681386059B013B0593E9D12C
:102680002649606928F0B6FC204600F069FE0C9BE4
:102690002AAA02EB830308F1010953F8340C28F04D
:1026A000A3FC414613AA0746304600F023FC8046AF
:1026B000A068D8F80010FF2200F59C702DF003F9F7
:1026C000D8F800A04FF6FF7818AA4946304609F11D
:1026D000010B00F00FFC00286AD0A368006803F526
:1026E0009C73002213F801CB815C614505D121B1B7
:1026F00001324FF6FF718A42F4D10FB1BA4208DBC2
:10270000904505F1FF35A8BF9046012D1FFA88F8C6
:102710004ED0D946D8E700BFD65E0400191A04008F
:102720009815040000680028A1D0069A51462DF0A3
:10273000B8F800289BD08DE75846079328F054FC42
:10274000049BA168C21892B258464F8D099228F096
:102750004BFC079B0890184628F046FC099A0899FC
:10276000079BA2EB0009A068B0F830C07F1A97FB66
:10277000F2F292B2BCFBF2F102FB11C20CF1010EBB
:1027800092B21FFA89F9A0F830E05AB90093A74A2B
:102790005B460721204628F0C0FE4946204600F04F
:1027A00057FC69E7A24A0721204628F0B6FEF4E765
:1027B000B8F1000F3FF404AEA8EB070292B20AEBA7
:1027C0000701204628F0E8FEFAE5D0F858325B070A
:1027D0007FF5F6ADD0F8583243F04003C0F85832D8
:1027E000204628F0F6FEEBE555077FF5E9AD013B05
:1027F000162B3FF6E5AD01A252F823F0C9290000DF
:102800005928000061280000B3240000BD29000001
:1028100087280000C1230000C1230000C12300005D
:10282000C12300008F28000097280000C12300006A
:10283000B3280000C1230000BD280000C123000010
:10284000C1230000C1230000C1230000C1280000F3
:10285000C1230000ED280000204628F0CFFDAFE5A1
:10286000204628F0C4FD204628F083FD18B97149A0
:10287000606928F0BFFBA368D3F8582242F04002F9
:10288000C3F85822F8E5204628F0C0FD98E5204618
:1028900028F0C5FD94E56069674A654928F0AAFB00
:1028A0006069664A624928F0A5FB204600F058FDA1
:1028B00086E500212046FFF779FB81E50121F9E754
:1028C000204628F08EFDA3685949002283F838205D
:1028D0009A865A86A268D2F8583243F04003C2F86A
:1028E00058326069564A28F085FB69E5204600F0B9
:1028F00087FCA268D2F8583243F0400364E65B2BB1
:1029000001D10223DAE5D0F85822500709D5622B0D
:1029100005D14FF0FF31204600F0E8FB01E0662BC7
:10292000F9D0A36800225A714AE500224271A268D8
:10293000D2F8581249077FF543AD313B1B2B3FF6C8
:102940003FAD01A151F823F0C5290000D1290000B5
:10295000F1290000B9290000C1230000C1230000B3
:10296000C1230000C1230000C1230000C1230000D7
:10297000C1230000C1230000C1230000C1230000C7
:10298000C1230000C1230000BD280000B3280000BF
:102990008728000059280000C1230000BD2900003D
:1029A000C1230000C9290000C1230000C123000089
:1029B000C1230000D529000003235371204628F0CD
:1029C00016FDFDE403235371204628F00AFDF7E4C9
:1029D00003235371A268D2F85832D2F8581203F088
:1029E000010383F0010363F30001C2F85812E7E426
:1029F00003235371A368D3F858325B077FF5E0AC2B
:102A000057E500235AE5A368BFF35B8F03F5167300
:102A100053E8002F22F0080243E800210029F7D1F3
:102A2000BFF35B8F2BB0BDE8F08F00BFBB1C040071
:102A3000431B0400191A0400E31C0400E71C0400F3
:102A4000DF1C04002DE9F041044688B00F464FF426
:102A50004172002180681E462CF05BFEA36822684C
:102A6000E0681A6028F02AFFA06800F53B702CF09F
:102A7000CCF94FF427784FF41775A06828442CF050
:102A8000F0FDA068002243190121404410352CF0CC
:102A9000CBFDB5F5277F08F11408EED1A36900221C
:102AA0001A60A268D2F85832106843F01003C2F8D6
:102AB0005832D2F8583243F00403C2F85832D2F8F0
:102AC000583243F02003C2F858321B4B936228F06F
:102AD0008BFAA36883F82C00A268D2F8583243F02E
:102AE0000203C2F858326068144A036839461D6808
:102AF0002346A8470546D0B9A36801221A71D4E934
:102B00000A0100220023CDE906230E2303930E9B26
:102B10000495CDE901630094094B4FF4406210F035
:102B20006FF8A368616AC3F800030FF0BFFF28467F
:102B300008B0BDE8F08100BF1800500021B00200CD
:102B4000952B000010B5044680680379012B1CD139
:102B50004FF0FF324FF0FF3300F53B7028F06AFA78
:102B60000021204600F002FB0949606928F042FA82
:102B7000A36802221A712046FFF7F6F9A06800F553
:102B80003B7028F02FFA002010BD6FF08500FBE7A6
:102B9000181A04002DE9F0410446406803680E4607
:102BA0009B6800211546984700284CD126B1E06962
:102BB0002A46214628F047FF2046FFF7C3FF00289A
:102BC00041D1DFF89480214F214EA06800F5277095
:102BD0004FF0FF324FF0FF33032110F0FBFA0546B0
:102BE000A0684FF0FF324FF0FF3300F53B7075B136
:102BF00028F020FA20462B46164A022128F08DFCA8
:102C0000A068BDE8F04100F53B7028F0EBB928F072
:102C100011FA606803685B6903B198474246204631
:102C2000022128F0AFF93A462046002128F0AAF9FF
:102C300020463246012128F0A5F9A06800F53B7036
:102C400028F0D0F9C1E7BDE8F08100BF8D23000076
:102C500039B00200C11C0400AFAF02002DE9F047FB
:102C600016461F462B4ADFF8B880DFF8B890DFF829
:102C7000B8A00B460021044628F03AFA0025AF42DE
:102C800034D9735D4A460021204628F031FA0135D7
:102C9000102D23D1204ADFF89080DFF89090DFF8E4
:102CA00090A00021204628F023FA0025AF422BD91E
:102CB000735D13F8092012F0970F08BF2E235246B8
:102CC0000021204628F014FA0135102D14D1204699
:102CD000124ABDE8F047002128F00ABA15F00701B2
:102CE000CDD15246204628F003FAC8E742460021DB
:102CF000204628F0FDF9CAE715F00701D6D1424673
:102D0000204628F0F5F9D1E742460021204628F078
:102D1000EFF9D9E7D81C04009B150400A86904004A
:102D2000971504009115040099150400D65E04005F
:102D3000556A040010B5044613460A460146064883
:102D4000FDF7EAFC23691B7923B12046BDE810405A
:102D500028F0F3B910BD00BF53B102002DE9F74FC1
:102D60001F46DFF88C81002305460E46144603609B
:102D70009A4699462378002B00F0B18013F808306A
:102D800013F0080302D004F8019BF3E729684A1CFA
:102D9000BA422A6046F8214000F0A1809A4694F891
:102DA00000B0BBF1000FE5D0BAF1000F40F0838016
:102DB000BBF1270F06D0BBF15C0F00F08480BBF1A4
:102DC000220F71D1204628F0E0F9611C024620460E
:102DD0002CF085FCDA46E2E7204628F0D6F9611CA3
:102DE000024620462CF07BFC4FF0000AD7E7302942
:102DF00026D14FF0000B0223E15CA1F130005FFA15
:102E000080FCBCF1070FDAB218D8013340EACB0BD3
:102E1000052B5FFA8BFBEFD11A46511E2144204649
:102E20000192009128F0B1F9019A0230821A2046ED
:102E300000992CF054FC04F801BBB0E7022AECD155
:102E4000782936D14FF0000B0223E25CA2F1300169
:102E50005FFA81FCBCF1090FD8B213D841EA0B121A
:102E6000032B5FFA82FB0BD10423591E2144204619
:102E70000193009128F089F9019B821CD21AD6E7B0
:102E80000323E2E7A2F16101052903D8573A42EA98
:102E90000B12E5E7A2F14101052901D8373AF6E71F
:102EA000022806D00323E0E718F80B301B073FF594
:102EB00061AF013473E7D3458ED0BBF15C0FF8D11D
:102EC00061788A4593D1204628F05FF904F1010B1F
:102ED0000246594620462CF002FC5C465FE72B6810
:102EE0000022504646F8232003B0BDE8F08F00BF13
:102EF000D65E040010B50B46144650B90E490F4A71
:102F0000521AB3EBD20F0FD201EBC3014C6820462B
:102F100010BD816841B14A68097839B11846214627
:102F200090472368002BF2D10024F0E7142043439C
:102F3000D418D358F6E700BF20DC030080DC030080
:102F40002DE9F843064628F020F9054656BBBDE8B2
:102F5000F8834CB16A1C9BB20130D21A30442CF079
:102F6000BEFB2D1BADB24C460137BBB26A1E93426D
:102F70001846ECDA325C12F808201207F4D5013357
:102F80009BB29AB29542EFD9F25C18F8022012F087
:102F9000080906EB030103F1010CDAD00134A4B2F5
:102FA0006346EEE70027DFF808803C46DDE700BF18
:102FB000D65E0400F8B5846894F83830054653B9F5
:102FC000AB685A8E9A86F8BD013A92B2628632B9DF
:102FD00084F83820F4E7114904F138000E46628E77
:102FE000831813F8013C5B5C13F00803ECD18354A5
:102FF0009FB210FA83F110F807C016F80CC01CF04D
:10300000080F03F10103F3D1002FD9D0668E731C92
:10301000DA1BF61B2CF063FB6686D1E7D65E040054
:10302000014A024928F084B9F31C0400431B040040
:1030300059B1002981EAE172A2EBE17240690349CA
:10304000CCBF4123422328F073B97047EC1C040025
:1030500059B1002981EAE172A2EBE17240690349AA
:10306000CCBF4323442328F063B97047EC1C040011
:1030700010B5044628F07DF928B160690549BDE81E
:10308000104028F055B904F1080028F05EF9002836
:10309000F3D110BD191A04002DE9F041064605468A
:1030A00056F8084F04F12000628EA18E28F08DF8AA
:1030B0003046B4F82480E78C28F047F918B10A4963
:1030C000686928F035F9B84507D1218C638C28460A
:1030D000C91ABDE8F041FFF7BBBFE18CA38C2846BD
:1030E000C91AFFF7A5FFF0E7191A04002DE9F84304
:1030F0000C1E06462EDA644224B24FF0FF35DFF88C
:103100005880AFB21CE0B3689A8EB3F832E003F196
:10311000380C00201346991A09B213B9B5F1FF3FD4
:103120000BD09E4501D1012D07D01CF8039019F852
:10313000089019F0070F09D148B1304628F02DF951
:10314000013C24B2631CDED1BDE8F88301203B447E
:103150009BB2E0E70125D2E7D65E0400826802490F
:103160004069383228F0E4B8431B040007B583688F
:1031700093F82E208A4212D083F82E10406989B12C
:10318000094B009333238DF804302F316D238DF8D4
:103190000510ADF806306A46044928F0C9F803B0B6
:1031A0005DF804FB024AF7E71B5B313B431B04005D
:1031B000FD1C040037B50D4609780446FFF7D6FF1D
:1031C0006B78CBB1A26892F82F10994214D045F6D3
:1031D0001B31ADF8001034218DF8021003F12F01DE
:1031E00082F82F308DF803106D21ADF8041060695E
:1031F00002496A4628F09CF803B030BD431B040026
:10320000F8B583685A8E0546002A46D0988E002865
:1032100043D03730184403F138060346C41AB3428A
:10322000A4B219460DD311F80179202F33D01946D5
:10323000013B0878202804D001349E42A4B21946EC
:10324000F5D9631C4E1C121B194430462CF047FA6A
:10325000A9684A8E121B92B24A860A44002761422C
:1032600082F83870284609B228F097F868690B4A46
:103270000B4928F05DF83946094A3346284628F0BC
:103280004CF96869FFF7CCFE6869064A0449BDE855
:10329000F84028F04DB80B46C0E7F8BDF71C040015
:1032A000431B0400FA1C040070B504460D46164684
:1032B00012B14069FFF7B4FEA268938E383313440D
:1032C00020460C4A002128F028F9204650F8083FF3
:1032D0005A8E9A8628F039F828B106B11DB10649F0
:1032E000606928F025F86942204609B2BDE87040BF
:1032F00028F053B8431B0400191A040013B583685F
:103300008DF80710D3F85822D20704461DD5998EA0
:103310005A8E8A4219D0481C98860B449DF8072083
:1033200083F83820A368D3F858325B070BD560695F
:10333000094927F0FDFF204628F01BF818B107497E
:10334000606927F0F5FF02B010BD01220DF1070101
:10335000204628F0EFF8F6E7556A0400191A040031
:1033600083680A4A1B6810B50446032128F0D5F883
:10337000A368D3F858325B0707D52046FFF7EEFE67
:103380002046BDE81040FFF787BE10BD431B040078
:1033900038B5154642680C4611688B60A368C1E9D0
:1033A000004523B19B6C13B1044920469847A3689C
:1033B0009B6A0BB120469847002038BDF1330000CE
:1033C00007B509480EF048FB014650B104230093AD
:1033D000012306481A46FFF735FB002003B05DF8CD
:1033E00004FB6FF01200F9E7011D0400F0DB03009D
:1033F0002DE9F34782460D4683685B6C03B198471D
:10340000DAF808305B6B002B31D05046984770B328
:10341000364E374BDFF8E090F61AF608B6014FF05B
:10342000000846F00206E86801A9026927F0EBF9F6
:10343000074600283DD0DAF808309C6924B10246DE
:1034400001995046A0470446002CE868214618BF61
:103450004FF0010827F0F3F90CB1A742E3D0B8F11F
:10346000000F04D02B680020D3E901219047DAF83F
:1034700008305B6AD3B150469847B8B1A86801A933
:10348000026927F00EFA044650B3DAF808305B6997
:1034900023B301990246504698470146A86827F091
:1034A00024FA2B680120D3E90121904702B0BDE83E
:1034B000F087D9F8003013F0060F03D00D483146DD
:1034C00027F070FADAF808309C69002CC7D0012286
:1034D0000DF103015046A0470446BDE71946DDE75C
:1034E000504628F087F82B68DC60DAE7B8DB030089
:1034F00098DA0300081D0400300400202DE9F84F7D
:10350000044690460E4600296BD0374B002599465D
:10351000725DD25C120720D4DFF8D0A03046FDF7F0
:1035200015F8A3685A8D80B2401BA2EB080398429D
:1035300006EB050B13D95946002711F8010B19F8B2
:1035400000C01CF0080F02D00A2831D03B4608EB1F
:10355000070082422BD90137EFE70135D8E75B46F8
:103560000027B84217D013F8012B0A2A05EB0709E8
:103570001BD1606927F0E1FD3A465946204627F005
:1035800072FF1A49606928F08DF84146204609F11A
:103590000105FFF75DFD6069711928F083F8606926
:1035A0001249BDE8F84F28F07DB80137D9E71F462A
:1035B000606927F0C2FD3A465946204627F053FF7E
:1035C0003D44735D19F803301B0708D46069514608
:1035D00028F068F841462046FFF73AFD9EE701359E
:1035E000EFE7BDE8F88F00BFD65E0400191A0400AB
:1035F0002DE9F04F876800218DB0044608370D464D
:1036000007AA384601F10108FFF774FC0646A0B985
:1036100085B101462E4ADFF8C480DFF8C4B02046E9
:1036200027F07BFF31464B1C07AA38460393FFF770
:1036300061FC60B90DB0BDE8F08F306810B1FCF7E7
:1036400085FF80B2854238BF05464146D8E7D0E9BC
:1036500000A94046FCF77AFF0490BAF1000F20D091
:103660005046FCF773FF20222E1A8DF81B2043468C
:10367000184ACDF800A00021204627F04EFFB6B230
:1036800000239AB2B2420ED343465A460021204646
:1036900027F043FFB9F1000F0FD10F49606928F0FF
:1036A00001F80399BFE701220DF11B0120460593A4
:1036B00027F0D9FE059B0133E3E7049B6A1C02EB6C
:1036C000430292B249462046FFF718FFE9E700BFE0
:1036D0004A1D0400BC1C0400191A0400601D0400EB
:1036E000581D0400836873B505469868C8B1FCF797
:1036F0002DFF84B20C4E3046FCF728FFAB680096D5
:103700009B680A4A04440021284627F006FFAB685C
:10371000A4B2D9682246284602B0BDE87040FFF73F
:10372000EDBE0446E6E700BF5C1D0400BC1C0400BF
:1037300038B5074D074A04462946406927F0F9FF86
:103740006069054A294627F0F4FF002038BD00BF14
:10375000431B0400602304006423040010B50446E6
:10376000044A0549406927F0E4FFA368034A9A62C6
:10377000002010BD69230400431B04001800500002
:1037800008B58369034A1B68002127F0B1FC0020BB
:1037900008BD00BF631D040010B5064A04460021A1
:1037A00027F0A6FC2046044A002127F0A1FC0020B7
:1037B00010BD00BF721D0400611E0400F0B5104F63
:1037C00085B004460025A268E0680DF10E0302F5FD
:1037D0009C72012127F0CFFFBDF80E00A36858B1FD
:1037E00003F59C7300936E1C2B463A46002120463D
:1037F00027F07EFC3546E6E783F8380105B0F0BDDA
:10380000291F0400022907B50CD1536801930D4B01
:10381000009313680C4A27F06BFC6FF0150003B09F
:103820005DF804FB8368094AD3F8583213F0040F9B
:103830004FF00001064B18BF1346064A27F058FC0C
:103840000020ECE7401F0400371F0400F470040060
:10385000331F0400551F0400F0B5012985B005464B
:103860000DD053680193534B00931368524A0221C1
:1038700027F03EFC6FF01504204605B0F0BD4F4A1E
:103880004F49406927F055FF6FF0F9012846FFF7CF
:10389000CFFBFA212846FFF7DBFBA86800244FF492
:1038A0008072214600F59C708DF80B402BF031FFA3
:1038B0004449686927F03DFF686927F03EFC4FF4F2
:1038C0007A766868036801221F690DF10B0103AB6A
:1038D000B847039B53B9013E4FF47A70B6B22BF050
:1038E00057FC002EEDD16FF0850431E09DF80B30D0
:1038F000AA681B2B53D092F838111B29E1D1522B07
:103900004DD11444002384F8383192F839115B29E1
:103910004DD102F59D701F46022610F8011B01369D
:103920003B29B6B226D1B6F5807FDCD006F59C7077
:103930001044002310F8014B34BBFA2B28BFFA23A4
:10394000FA2F53853B4628BFFA2382F83841138566
:103950001D4A1B49686927F0ECFE002C8CD0AB682F
:103960001A4A9A6204211A4A284627F0C1FB6FF0CE
:10397000070481E707EB870301EB4303303BB6F510
:10398000807F9FB2C9D1AEE703EB8303013604EB1E
:103990004304B6B2303CFF2EA3B2CBD9A3E7111932
:1039A0000134A4B2092C81F838318AD9002382F875
:1039B000383198E7401F0400371F04005A230400E1
:1039C000431B04006F2304005D2304001800500013
:1039D000661F04002DE9F04F074689B01546894659
:1039E00021B90324204609B0BDE8F08F104628F025
:1039F000B3F80028F5D04FF000084146022424E037
:103A00005C463CE029460AF59C702BF083FF064695
:103A100000284ED0FCF79AFD82B2601C013231467C
:103A200030442BF05CFE2246594630462BF036FEE1
:103A30004FF020033355BAF8360004440134AAF895
:103A4000364008F10108002401994B1C03AA48469E
:103A50000193FFF74FFA0646F8B131680022284675
:103A600026F0D4FA0028EFD1D6F800B0D7F808A095
:103A7000BBF1000FC4D05846FCF768FD84B2BAF819
:103A8000362001322244B2F5807FBBDD0A4A2B4644
:103A90000421384627F041FD0124B8F1000FA1D0E0
:103AA000B8682A4600F1360100F59C7027F0A3FBA8
:103AB00098E70224F1E700BF7423040038B5044CF2
:103AC000044DAC4200D338BD54F8043B9847F8E7A6
:103AD00094DA030098DA030038B5054C256804EB46
:103AE000850405B938BD54F80439013D9847F8E715
:103AF0008CDA03002DE9F7430E4680460821C06AA0
:103B000028F0E5F83468124B241A0746346004EABA
:103B100003059946AC4203D8002003B0BDE8F0830A
:103B200008236A462146404628F05EF80028F4D172
:103B3000684628F0B7F840B9BDF80230BDF8042057
:103B4000346005EA090513441D44E41BE2E700BFA5
:103B50000000FFFF2DE9F04F054695B0C06A08212F
:103B600028F0B5F86B681B0C1B04804603A9E88994
:103B7000039328F0B6F8039BA98906AE1944A1EB7C
:103B80000801082332462846049128F02DF8041E27
:103B9000C0F29980EB6A1A790023F15C914240F0FF
:103BA00081800133082BF8D10399284628F0A4F826
:103BB000044688E0049BBDF81A201B0C1B04134428
:103BC0000493DFF80CB1DDF810A008AA04A9284678
:103BD00028F0BAF80446002875D108A828F062F841
:103BE000002836D16B6805930AAA05A92846059EC8
:103BF00028F0AAF80446002865D1BDF82820BDF8B1
:103C000020309A4228D06A68059B9A42ECD15645EA
:103C10001FD1BDF82430E3B1BDF822300AEA0B070A
:103C20001F4408A8AB68ADF8223028F047F8EB6ACB
:103C3000BDF824901E68764206F020030193B9F186
:103C4000000F0FD108A9284628F016F904460028CD
:103C500039D1C245B7D1A7E70AA828F023F8002830
:103C6000D1D1D4E7019B4B4528BF4B460CAA39461E
:103C700028461E4627F0B8FF044620BB36B1A96887
:103C800033460CAA284628F0AFF80446E86A3146C5
:103C900028F01DF8AA680244AA60A4B9A9EB060995
:103CA0003744CCE70498A0EB0808304627F0FAFF29
:103CB00000283FF47FAF04A92846FFF71BFF044606
:103CC00000283FF47EAF204615B0BDE8F08F00BF5E
:103CD0000000FFFF2DE9F047044686B00D4600F1D5
:103CE000140630462BF091F828460DF0B5FEA06280
:103CF00080B9A94B1B685D0709D0A849A84BA94802
:103D0000C91AC908890141F0010126F04BFE6FF084
:103D100005050AE083681B699847E062A0B99E4BDD
:103D20001B685C0705D16FF01505284606B0BDE895
:103D3000F0879A499A4B9C48C91AC908890141F0F1
:103D4000010126F02FFEEEE7A06A83681B69984701
:103D50000368013B1F2B0CD98F4B1B685807E2D01F
:103D60008E498F4B9148C91AC908890141F0010158
:103D7000E7E7A06A216803AA29F0F6FD60B1864B47
:103D80001B685907CFD08549854B8948C91AC9088E
:103D9000890141F00101D4E7A3892BB1049AB3FB57
:103DA000F2F502FB153565B17B4B1B685A07BAD09B
:103DB0007A497B4B7F48C91AC908890141F0010142
:103DC000BFE7E389012B0CD8734B1B685B07AAD0B4
:103DD0007249734B7848C91AC908890141F0010139
:103DE000AFE7E36A009593F804904FF0FF324FF08D
:103DF000FF3330460EF04AF9E06A082127F067FFEA
:103E00002F468046E3891FFA85FA534500F28180E8
:103E1000E389BB4200F0BC809A450CD1009908238D
:103E20004A46A1EB0801204627F016FF18B9E089A1
:103E3000694627F056FF009B604FA3EB08023B400A
:103E40006260A360D4E9011399420FD3082301AA49
:103E5000204627F0C9FE054620BB01AB13F8012B15
:103E6000914540F0B3800135082DF7D1D4E90131F7
:103E70008B4207D95B1A4A46204627F0EDFE051E05
:103E800010DB69D163684D4FE0893B406946009380
:103E900027F027FFA38900994A46204627F0DCFE39
:103EA000051E5FDA30460EF069F9002D7FF43DAF54
:103EB000394F012323743B6803F00703022B7FF67D
:103EC00034AF374B354EA289E1893D48F61AF608E2
:103ED000B60146F00306334626F085FD3B6803F045
:103EE0000703022B7FF621AF6168364833468AB25A
:103EF000090C26F078FD3B6803F00703022B7FF6E0
:103F000014AFA16830488AB23346090C26F06BFD25
:103F10000BE7A1892B04A1EB080113FA81F14A46B2
:103F200008232046009127F097FE70B1E08969468A
:103F300027F0D7FE0137009908234A462046BFB232
:103F400027F08AFE00283FF463AF01355AE7002DC1
:103F500051D06FF01C05A5E7E26AA368126813440C
:103F6000A36083E79ED06168204627F0C5FE054622
:103F7000002897D16368A0893B400344A3EB480025
:103F800060603840A0602046FFF7E4FD054689E701
:103F90006FF02C0586E700BFA8030020A8DA030015
:103FA00098DA0300DA230400F6230400182404003E
:103FB000352404004D240400612404000000FFFFA8
:103FC000842404009B240400AD24040001A827F0ED
:103FD00069FE626878B9009BBDF80600BDF808501C
:103FE0003B400344A360E06A294627F070FE034487
:103FF0009342A360ABD0A2EB0802626022E700BF4D
:104000002DE9F04F1E46037C89B004468946904650
:1040100083B96B4B1B685B0709D06A496A4B6B48D5
:10402000C91AC908890141F0010126F0BBFC6FF0F3
:104030000C0588E0C36A0821184627F048FE31467F
:104040008246184627F043FEA3890AEB4A029B1AD0
:10405000B3420746C0F0AE801EB1B8F1000F00F0C9
:10406000A9806368039304AA03A92046DDF80CB075
:1040700027F06AFE0546002865D1BDF810304B4593
:1040800005D06268039B9A42EDD1DEB95BE004A8DB
:1040900027F008FE0028F4D1BDF8143086B1B342F1
:1040A00010D1BDF812004FEA1B4109040144334608
:1040B0004246204627F0A6FD002803DC054642E0E4
:1040C000002B40D0002F42D104F1140A4FF0FF32F0
:1040D0004FF0FF335046DFF8F8B00DF0D7FF002265
:1040E000E3899A4263D0D4E901317818834231D30D
:1040F000FF2306A8ADF81890ADF81A10ADF81C60B3
:104100008DF81E3027F0DAFD36B1A16833464246FD
:10411000204627F069FE0546E06A314627F0D7FDC4
:10412000A3680344A360002D47D106A9204627F0C9
:10413000A3FE0546002840D13346019350460EF0B9
:104140001DF8019B1D46284609B0BDE8F08F574475
:10415000BFB2B9E7E06A0192082127F0B8FD4FF637
:10416000FF71ADF818100021ADF81C101918ADF84A
:104170001A10A18903EA0B030B44181A606006A801
:1041800027F09CFD06A9204627F076FEE089211D38
:1041900027F0A7FD636803EA0B03A3602046FFF73F
:1041A000D9FC03460028C8D1019A013298E76FF084
:1041B0001B03C2E76FF01505C5E72B46BDE700BF3F
:1041C000A8030020A8DA030098DA0300C62304003D
:1041D0000000FFFF2DE9FF471E46037CBDF830902D
:1041E00004460F46904683B92C4B1B685B0709D0E9
:1041F0002B492C4B2C48C91AC908890141F00101EF
:1042000026F0D0FB6FF00C003AE0C06A082127F0DE
:104210005EFDA389A3EB4003B3423BD363680193E4
:104220004FF0000A02AA01A92046019D27F08CFD4B
:1042300030BBBDF80830BB4207D102A827F032FDE1
:1042400018B90AF1010A1FFA8AFA6268019B9A42B8
:1042500019D0CA45E6D9BDF80C30C3B1CA4516D34A
:10426000BDF80A102D0CB3424FEA054528BF33466E
:1042700042462944204627F0B7FC08B9BDF80C0097
:1042800004B0BDE8F087BDF80830BB42E3D06FF062
:104290000100F5E76FF01500F2E700BFA80300206A
:1042A000A8DA030098DA0300C623040008B507F073
:1042B00013F9014B188008BD40A20020094B30B50E
:1042C0001D68094B02461C6800239D4201DC00204A
:1042D00030BD190104EB0310615C9142F8D0013349
:1042E000F3E700BFE8E203007C000020084B1B68F6
:1042F00010B50C462BB1FFF7E1FF28B1206000207C
:1043000010BD6FF00C00FBE76FF00100F8E700BF95
:104310007C00002030B589B00C4615460190FFF7AF
:10432000CDFFB8B14368029383682268C068CDE9C5
:1043300003350023CDE9062305930DF08DFB60B115
:10434000074901AA29F014FB079808B9059B2360C7
:1043500009B030BD6FF01500FAE76FF01200F7E713
:10436000B1BE0200104B2DE9F0411C6805460E4617
:104370001746ACB14FF0FF324FF0FF330B480DF052
:1043800085FE63683246D3F8088029463B462046BE
:10439000C047044605480DF0F1FE2046BDE8F08117
:1043A0006FF00104F9E700BFDC7600202005002053
:1043B00000230360044B5A6812B9C3E90000704738
:1043C00010605860704700BFD4760020014B186021
:1043D000704700BFDC7600201FB5CDE901010392D4
:1043E0004FF0FF330C484FF0FF320DF04FFE0B4BF8
:1043F0001C68002C38BF00243CB1636820461B6851
:1044000001A998472468002CF6D103480DF0B6FEA8
:10441000002004B010BD00BF20050020D47600208D
:10442000024B0022C3E90022704700BFD47600206F
:10443000024B0022C3E90022FFF7F2BFE076002022
:104440002DE9F34107460E4609B100230B601E4CCF
:10445000DFF87C800025444508D31C4B1C680CB158
:10446000143CC4B9284602B0BDE8F081216801AA15
:10447000384627F03FFD60B125B90EB1019B33608E
:10448000254606E029682068002227F033FD002831
:10449000F3D11434DFE7216801AA384627F02AFD5A
:1044A00060B125B90EB1019B3360254606E029684D
:1044B0002068002227F01EFD0028F3D114F1140F0C
:1044C000D0D06469CBE700BF98DA0300E076002023
:1044D00098DA03002DE9F04385B00546DDF8308019
:1044E00003900C4616461F46B8F1000F18D0D8F8B6
:1044F000001081B103AA27F0FDFC60B9002007E09D
:10450000D8F80830009303983B4632462146C84706
:1045100005B0BDE8F083D8F80490B9F1000FEFD1F1
:1045200003A92846FFF78CFF0028E7D0D0F80880C1
:10453000039832463B462146C04706460028DDD058
:104540000A4B1B685B07D9D0094B0A4C2846E41A72
:10455000E408FCF7DFFCA40144F001040146234613
:104560000548324626F03FFAC8E700BF280400207D
:1045700098DA0300A8DB03005025040010B5064CB0
:1045800023783BB9FFF754FF00F064F808B9012322
:10459000237010BD0020FCE7CAA200202DE9F047DF
:1045A000048FDFF8ACA0013498B080468946A4B2ED
:1045B00000F10806651EADB2B5F5004F45D04A239F
:1045C00005AA2946304627F06CFC04F57F543F3499
:1045D000A4B20746214601230DF10B02304627F015
:1045E00060FC002F014603DC002803DC2C46E1E7D9
:1045F000002816DCB8F83830AB4209D142466B1EB1
:1046000022F8383F4FF4004102233046FFF7F8FC10
:104610002946304627F041FC2146304627F03DFC34
:10462000E4E718AB1F44002307F84C3C5246CDF892
:10463000009003AB05A80396ADF81040FFF74AFFC2
:104640000028D3D018B0BDE8F0870020FAE700BFFB
:104650003BBF02007FB50123694604200193FFF7A9
:1046600045FE0446002836D102AA01A90420FFF71E
:1046700051FE10F1130F04462DD038B10C3405D083
:10468000404080F311884FF0040002DF0399B1F538
:10469000803F23D2009A002395681846084485423B
:1046A0009CB203D30133082BF8D11C460D4D53683F
:1046B000AB602846D368EC82A982EB6327F0D2FC7A
:1046C000044640B9084E6E602846FFF771FE284642
:1046D0006E60FFF77BFE204604B070BD6FF02004D3
:1046E000F9E700BFE87600208000002008B5044606
:1046F0004FF02002EFF3118382F31188BFF36F8F25
:1047000027F0E8FD204601F09BFC034825F015FD4D
:1047100000F05CFFFCE700BF7525040010B50748FA
:10472000074C0DF099F9074B1860204601F006FC84
:104730002046FBF7EBFF002010BD00BF011D040069
:1047400049470000287700200A2838B5074D04465D
:1047500004D1286883680D215B68984728688368BE
:10476000E1B25B689847204638BD00BF287700203B
:104770002DE9F0410D4FFA68851AC5F347130C2552
:104780005D43044605F148000E461044402127F0E1
:104790008EFC011E04DB7B681D446B68984700217A
:1047A00020463346BDE8F041184700BF1003002003
:1047B0002DE9F041DFF84480D8F80C40051BC5F323
:1047C00047130C255D43074605F148000E4620447B
:1047D000402127F085FC011E09DB074B2C44C4E96E
:1047E0001036D8F804305B59BDE8F0411847384618
:1047F0003346BDE8F041184743C1020010030020D2
:10480000002270B501210446104600F06FFE002022
:1048100000F03AFE0F480BF0D1FC0F4B984215D137
:104820000BF0DCFCE6680D49304625F0EFFC002873
:104830000BDB0125B564E468084904F1200025F08C
:10484000E5FC002801DB6565002070BD6FF0040009
:10485000FBE700BF994800000000AD0B5CE30300DC
:104860002DE9F0410B4E01460C23F0684B43C41870
:10487000D4E91057002248332264184427F04EFC34
:104880002DB13A4630462B46BDE8F0411847BDE809
:10489000F08100BF1003002010B1012805D070473F
:1048A000034BDB689B6C5B0701D1FFF7D9BF7047F7
:1048B0001003002010B52AF056FD4FF47A730C4611
:1048C000A0FB030103FB0411054AC30B43EA414368
:1048D000BDE81040C90B0120C2E900310BF0AEBCAD
:1048E00008090020084BBFF35B8F53E8002F22F02C
:1048F000020143E800100028F7D1BFF35B8FD30714
:1049000001D4FFF7D7BF70479477002010B52AF085
:104910002AFD4FF47A730C46A0FB030103FB04113C
:10492000054AC30B43EA4143BDE81040C90B0120CF
:10493000C2E900310BF064BC0009002008B54FF05B
:104940002003EFF3118183F31188BFF36F8F124AB5
:10495000136843F0020013F0010310600ED04FF013
:104960008042D2F80C34D2F80C2413F0010305D0A5
:104970000A4BD868483027F0D1FB012381F3118816
:10498000BFF36F8F23B1BDE808400020FFF768BF79
:10499000BDE80840FFF7BABF94770020100300205D
:1049A0002DE9F04F4FF08047344BD7F81864D3F817
:1049B0000C8085B0044606F480364FF02003EFF3F8
:1049C000118983F31188BFF36F8F2AF0CCFC4FF469
:1049D0007A730A46A0FB030103FB0211D7F80C34DB
:1049E000D7F80C24264A0393D2F800B0254AC50B09
:1049F000D2F800A045EA414589F31188BFF36F8FD3
:104A0000214ADFF89C90214F2046002126F070FBC0
:104A1000039B1F4A13F0010FB8F81E300093204685
:104A200014BF4B463B46002126F062FBA5EB0B036F
:104A3000009320465B46174A0021A5EB0A0526F0A5
:104A400057FB53462046144A0095002126F050FBA0
:104A50002046124A002126F04BFBB8F83E30009366
:104A600020460B4A002E14BF4B463B46002126F041
:104A70003FFB002005B0BDE8F08F00BF1003002011
:104A80000009002008090020A32504009E25040039
:104A9000AE250400C8250400EA2504000B26040006
:104AA0002079040010B58AB000230122CDE9063236
:104AB000019308AA0A4BCDE9082204AC01AACDE96A
:104AC0000444CDE9023427F06CFB002805DB4FF4E9
:104AD0008042002320460DF06FFF0AB010BD00BFDA
:104AE0004FC10200024BDB68C0B203EB40107047BD
:104AF0001003002010B51149BFF35B8F044601225B
:104B000051E8003F41E800200028F9D1BFF35B8F56
:104B100043B90B49C8680B4920304B60CB608A60B1
:104B200025F087FB012C06D0022C06D10120BDE820
:104B3000104027F015BB0020F9E710BD9877002042
:104B4000100300202C77002038B50B4DD5F85045C8
:104B500064B94FF47A704843C5F8502529F064F9D8
:104B600038B9C5F850054FF0FF3038BD6FF0770009
:104B7000FBE72046F9E700BF1009002038B51546CD
:104B800004290AD8DFE801F003132C30340013782D
:104B900043B1507820B1012802D06FF015001AE01F
:104BA00029F04DF9287829F04CF9002013E05379C9
:104BB000117914683BB1204629F045F90028F4D159
:104BC0006FF00B0007E03CB1204629F045F90028C2
:104BD000EBD16FF0010038BD084629F040F9E4E759
:104BE000107829F02AF9E0E7107829F024F9DCE7B9
:104BF000024B1268C3F85425CFE700BF100900200C
:104C000008B529F0FCF880B9094B1B685B0709D08F
:104C10000849094B0948C91AC908890141F001012D
:104C200025F0C0FE6FF0040000E0002008BD00BFCA
:104C3000AC030020B0DA030098DA03005926040020
:104C400008B529F0DFF880B9094B1B685B0709D06C
:104C50000849094B0948C91AC908890141F00101ED
:104C600025F0A0FE6FF0040000E0002008BD00BFAA
:104C7000AC030020B0DA030098DA030074260400C5
:104C8000F7B59A89C5680C461E469968931C074675
:104C900085F8BC34D2B205F2BD402AF0FFFC0023F7
:104CA000012CC5F8AC3403D0022C10D0002C4AD112
:104CB000214605F2BC4029F0ABF860B9544B1B68A3
:104CC000590752D16FF00404204603B0F0BD05F23D
:104CD000BC4029F0C7F84F4BD3F854351BB13246CE
:104CE0000021384698474FF0FF324FF0FF3305F26E
:104CF000A4400DF061FE95F83C75002FE2D1D5F887
:104D00004445002CE0D024782868023C002200238F
:104D1000E4B2CDE9002321463B463A4603F014FBBA
:104D2000064668BB3A4B1B685A0709D03A493B4BC9
:104D30003B48C91AC908890141F0010125F032FE3A
:104D40006FF00B0437E0324B1B6858070AD0324A29
:104D5000324B3448D21AD208920142F00102214665
:104D600025F02DFE6FF08504AEE72C4B2A492E4826
:104D7000C91AC908890141F0010125F013FEA1E714
:104D8000D5F844152246013128F085F900281ADAB1
:104D90001F4B1B685B0709D01F49204B2348C91ACA
:104DA000C908890141F0010125F0FCFD6FF00B04F9
:104DB000304627F084FFD5F8440509F0FDFB0023B9
:104DC000C5F8443580E795F84C3586F8473095F8B6
:104DD0004D3586F84630304627F0C3FF2868314607
:104DE00005F046FD04460028E2D0094B1B6803F09D
:104DF0000703022B09D90849084B0D48C91AC908ED
:104E0000890141F0030125F0CDFD3C46D0E700BF0C
:104E1000AC03002010090020B0DA030098DA030088
:104E2000BD26040092260400AB260400D726040009
:104E3000F42604002DE9F347304B314ED0F80C80B6
:104E4000DFF8C490DFF8C4A0F61AF6084FF0FF327E
:104E50004FF0FF3308F57A700DF0D8F904460022C0
:104E60006368D8F800001F780023CDE900230023F1
:104E70001A46394603F068FA0546A0B9D9F8003059
:104E80005A0705D0B1011F4841F0010125F08AFD04
:104E9000606809F091FB00236360002DD6D028469E
:104EA00027F00DFFD2E761683A46013128F0F3F8A8
:104EB00007460028ECD1237B85F84730637B85F8D3
:104EC0004630A27B95F8483062F3000385F84830FD
:104ED000D8F80000294601F0F3FD002808DAD9F8D7
:104EE00000305B07D4D0B10141F001015046CDE75D
:104EF000606809F061FB6760A8E700BF98DA03000B
:104F0000B0DA030018270400AC03002029270400AE
:104F100070B54668C56888B0044605F57A7029F012
:104F2000E8FF0122002105F2A4402AF01BF901222A
:104F3000002105F591602AF015F928F039FF336852
:104F40002046984705F54C7600220023CDE906233C
:104F500000236FF00D02CDE90323CDE90133009466
:104F60000F4B4FF4487205F1100130460DF048FE2A
:104F70000C4930460DF09AFD0B4B1B6803F00703FC
:104F8000022B09D909490A4B0A48C91AC9088901DB
:104F900041F0030125F006FD002008B070BD00BF00
:104FA000354E000045270400AC030020B0DA0300B2
:104FB00098DA03004D270400F0B4174E002435465C
:104FC000D6F8087437B10134082C06F11006F7D171
:104FD000F0BC704704F1400705EB0716B0602601EE
:104FE00005EB041484F8111484F81024C4F80C346C
:104FF00043780A4813F0200305EB060218BF95F822
:10500000843482F8123405EB0711002385F88434C8
:105010000431F0BC29F07ABF10090020F80C002000
:10502000024B002283F88424704700BF100900203F
:105030004378034AC3F3001382F88434704700BFF7
:1050400010090020074810B4002480F83C45C0F83F
:10505000441580F84D2580F84C3510BC00F2A44072
:105060000DF084BC10090020034880F83C1500F2C4
:10507000A4400DF07BBC00BF10090020034B83F857
:10508000A00403F591600DF071BC00BF1009002071
:105090000348002380F8A03400F591600DF066BC51
:1050A0001009002070B5094CD4F8505565B10023A3
:1050B000C4F8503528F078FE23681B6801B21868E0
:1050C0002B46BDE87040184770BD00BF1009002096
:1050D000064BD3F8502542B10021C3F850151B6888
:1050E0001B6847F6FF7118681047704710090020C9
:1050F000821C084B22F07F42C3F84025D3F80425D8
:10510000904200D17047D3F80405821C22F07F4200
:10511000F2E700BF00100140074B00221A601B6835
:10512000064A074BD3F840051368C01A20F07F40A9
:10513000034413600DF044BF40110140E8770020A4
:105140000010014038B5104D104B0024C5F808453B
:105150001C601B680E4B4FF40032C3F880214FF4E3
:105160008033C5F8043322460121112000F0BEF936
:10517000112000F089F9074A0123136020462B60B3
:10518000FFF7B8FC204638BD001001404011014037
:1051900000E100E008100140F8B52B4B2B4C1968DA
:1051A000D4F804252A4D521AB0F1FF3F08BF284613
:1051B00022F07F43120236D4013820EAE070A84280
:1051C000A8BF284601331844A84294BF0D184D19B2
:1051D0004FF48031C4F80813D4F80425D4F84035CE
:1051E0001C4E00279B1A376023F07F433068012B49
:1051F00022F07F40C4F84005C4F8441304D10F20C6
:1052000029F0C6FF37603368134B4FF40032C3F800
:105210008021D4F804052B1A23F07F43012B04D1FD
:10522000FFF766FF0BE00020CCE725F07F43C4F8D2
:105230004035D4F804052D1A023D2B02F0D44FF46A
:105240008033C4F80433F8BDE87700200010014033
:10525000FFFF7F004011014000E100E04FF020021D
:10526000EFF3118382F31188BFF36F8F064AD2F8F0
:105270000405064A1268801A20F07F4083F31188E3
:10528000BFF36F8F704700BF00100140E877002028
:105290004FF02003EFF3118283F31188BFF36F8F78
:1052A0000649074B0868D3F8043582F31188BFF329
:1052B0006F8F1B1A23F07F4318447047E877002054
:1052C0000010014010B5114C114AA2610323C4E93A
:1052D0000433104BE36122664FF480630E4A0F499A
:1052E0002362626600231022E01DA3626362E36210
:1052F0002367E3666367A2662AF0CBFA0849204673
:105300002AF0C7FA2023A37110BD00BFEC7700205C
:1053100095270400DBA20020CBA200209E270400DA
:10532000A22704002DE9F84F234F4FF0180B144625
:105330000BFB00720646936A556AAB42884634D826
:10534000D2F820A0AAEB050909F1FF32944211D846
:105350004FF0180906FB09933B4422465868414622
:1053600028442AF09BF909FB06762C44746201203C
:10537000BDE8F88F13449C421BD800FB0BBBBB4419
:105380004A46DBF804002C4428442AF087F9B4EBA1
:105390000A0406D0DBF80400224608EB09012AF0D3
:1053A0007DF9182000FB0676E0E7013B5B1BA3427A
:1053B000CED20020DCE700BFEC770020034B1822A0
:1053C00002FB00339A6A586A801A7047EC77002013
:1053D000034B43F8302003EBC0035960704700BF14
:1053E000900100200A4A0B4993680968C3F8B0107D
:1053F0000949C3F8AC004B6843F080534B6000236D
:1054000083F31188BFF36F8F9368D3F8B0007047B0
:1054100024A00020240D040000ED00E010498A685B
:105420004FF038001044EFF3098C80E8F01F202083
:1054300080F31188BFF36F8F0A4F4FF000664A6AFE
:105440008A603E60D2F8AC000023C2F8AC3080F332
:10545000118802F1380090E8F01F8CF3098870473A
:1054600024A0002004ED00E01EF0040F0CBFEFF3B9
:105470000880EFF30980816911F8021C0229FFD02E
:1054800001B526F033FF01BD43B2002B08DB01223A
:1054900000F01F0002FA00F05B09024A42F8230004
:1054A000704700BF00E100E043B2002B0DDB01229A
:1054B0005B0900F01F0002FA00F02033034A42F8B3
:1054C0002300BFF34F8FBFF36F8F704700E100E001
:1054D000054B420900F01F0053F82220012303FA74
:1054E00000F01040704700BF00E100E043B2002B25
:1054F000A8BF03F1604301F10101B8BF064B4FEAB9
:105500004111ACBF03F5614300F00F00C9B2B4BF55
:10551000195483F80013704714ED00E038B50546C0
:105520000C4611461A46FFF753FF6AB2002A04F1EF
:105530000103AEBF02F16042064A05F00F014FEAD7
:105540004313DBB2AABF02F56142535482F8003321
:10555000284638BD14ED00E042F8203C009B42F89C
:105560001C3C0A49019B42F8183C029B42F8143C3F
:1055700021F001014FF0807342F8043C42F8081C0E
:105580000023203A8265C0F8AC30704737A3020090
:1055900008B506460D46144600F0FEFB074B9E601C
:1055A000204685F30988002163B681F31188BFF393
:1055B0006F8F0022002324F0BEFE00BF24A0002035
:1055C000014910220A60704710ED00E072B64040B9
:1055D00080F31188BFF36F8FBFF34F8F30BF62B678
:1055E000BFF36F8F704700BFF7B507460C46002921
:1055F0002DD01A4E3368580729D0194B194D1A4827
:10560000ED1AED08AD0145F00105ADF80050D1E906
:105610000123096825F000FA3368590717D0ADF85F
:105620000050D4E90423E168104825F0F5F9336807
:105630005A070CD0E1690E482A4625F0C0F93368B4
:105640005B0704D0A1690B482A4625F0B8F921462A
:10565000384603B0BDE8F0400CF050BA20040020FA
:1056600098DA030098DB0300A9270400D827040078
:10567000072804001628040030BFFFF7FDBF00BF55
:105680000E4A08B50E4B22F07F029A60BFF34F8F8F
:10569000BFF36F8FD3F8882022F47002C3F88820FC
:1056A000EFF3148323F0040383F314880CF0BAFAA5
:1056B0000CF0C2FA00F03CFB0CF000FB0000000014
:1056C00000ED00E001B572B60B4A106A00281EBF5B
:1056D0000021116229F0C0FA62B6EFF30580A0F153
:1056E00010004FEAC0000549014409C99847BDE8C8
:1056F000014003490847000024A000209001002039
:10570000155D000026F01CFE202080F311880B4858
:105710004FF0AA014FF4006229F0FBFF07484FF455
:105720000061401880F30988EFF3148002210843D8
:1057300080F31488BFF36F8FFFF7A2FFA0E600206D
:10574000EFF30880EFF3098101B5724600F0E2F94A
:1057500001BD00BF10B53E4C23685B0709D03D4931
:105760003D4B3E48C91AC908890141F0010125F0A5
:1057700019F93B4B9B6A98010CD52368590709D04E
:105780003449354B3748C91AC908890141F001012C
:1057900025F008F9324B9B6ADA010CD523685B07C8
:1057A00009D02C492C4B3048C91AC908890141F04D
:1057B000010125F0F7F82A4B9B6A18030CD52368E2
:1057C000590709D02349244B2848C91AC908890117
:1057D00041F0010125F0E6F8214B9B6A5A030CD5F4
:1057E00023685B0709D01B491B4B2148C91AC9080C
:1057F000890141F0010125F0D5F8194B9B6A980306
:105800000CD52368590709D01249134B1948C91AF6
:10581000C908890141F0010125F0C4F8104B9B6AC9
:10582000DA030CD523685B0709D00A490A4B1248F2
:10583000C91AC908890141F0010125F0B3F8084AE5
:10584000936A6FEA03436FEA13439362002010BD2B
:105850002004002098DB030098DA030044280400A9
:1058600000ED00E05C2804006F2804008928040093
:10587000A7280400CC280400E628040070B5434C97
:1058800023685B0706460D4609D04149414B424813
:10589000C91AC908890141F0010125F083F83F4B7D
:1058A0009B6AD8060CD52368590709D03849394B6B
:1058B0003B48C91AC908890141F0010125F072F875
:1058C000364B9B6A1A070CD523685B0709D0304911
:1058D000304B3448C91AC908890141F0010125F04B
:1058E00061F82E4B9B6A980724D52368590709D085
:1058F0002749284B2C48C91AC908890141F00101E0
:1059000025F050F8254B596B9B6A1A0612D523686F
:105910005B0709D01E4A1F4B2448D21AD2089201B5
:1059200042F0010225F04BF826B11C4A936A23F09D
:1059300080039362194B9B6AD8070CD523685907DB
:1059400009D01449124B1A485B1ADB089B0143F03B
:10595000010125F027F8114B9B6A9A060CD52368A4
:105960005B0709D00B490A4B12485B1ADB089B0105
:1059700043F0010125F016F8084B9A6A9A6A002054
:1059800042F0FF029A62287070BD00BF2004002020
:1059900098DB030098DA03001129040000ED00E011
:1059A000272904005A2904006D29040085290400D0
:1059B0009B290400BA29040070B54A4C23680D469F
:1059C0005907064609D04849484B4948C91AC908E9
:1059D000890141F0010124F0E5FF464B9B6ADA049E
:1059E0000CD523685B0709D03F49404B4248C91A90
:1059F000C908890141F0010124F0D4FF3D4B9B6AA5
:105A000018050CD52368590709D03749374B3B484F
:105A1000C91AC908890141F0010124F0C3FF354BBF
:105A20009B6A9A0524D523685B0709D02E492F4B22
:105A30003348C91AC908890141F0010124F0B2FFB5
:105A40002C4B996B9B6A180412D523685A0709D00E
:105A5000254A264B2B48D21AD208920142F0010265
:105A600024F0ADFF26B1234A936A23F400439362E6
:105A7000204B9B6A5B050CD523685E0709D01A4949
:105A80001A4B2148C91AC908890141F0010124F0C3
:105A900089FF184B9A6AD00514D52368590709D095
:105AA0001249114B19485B1ADB089B0143F00101B5
:105AB00024F078FF0F4A936A002043F47F439362F7
:105AC000287070BD9B6A9A04F4D523685B07F1D0F7
:105AD0000649054B0E485B1ADB089B0143F00101A8
