:10000000800B0020D10F0000093200000110000019
:1000100001100000011000000110000000000000AD
:10002000000000000000000000000000290E000099
:100030000110000000000000E10D0000E3310000AD
:10004000910F0000910F0000910F0000910F000030
:10005000910F0000910F0000910F0000910F000020
:10006000910F0000910F0000910F0000910F000010
:10007000910F0000910F0000910F0000910F000000
:10008000910F0000910F0000910F0000910F0000F0
:10009000910F0000910F0000910F0000910F0000E0
:1000A000910F0000910F0000910F0000910F0000D0
:1000B000910F0000910F0000910F0000910F0000C0
:1000C000910F0000910F0000910F0000910F0000B0
:1000D000910F0000910F0000910F0000910F0000A0
:1000E000910F0000910F0000910F0000910F000090
:1000F000910F0000910F0000910F0000910F000080
:1001000053B94AB9002908BF00281CBF4FF0FF317E
:100110004FF0FF3000F06EB9ADF1080C6DE904CE80
:1001200000F006F8DDF804E0DDE9022304B07047D2
:100130002DE9F047089D0E4604468C46002B40F002
:1001400081808A42174645D9B2FA82F24AB1C2F199
:10015000200106FA02F320FA01F1974041EA030C6C
:1001600094404FEA174E230CBCFBFEF6B9B20EFBCF
:1001700016CC43EA0C4306FB01F0984209D9FB1860
:1001800006F1FF3C80F01581984240F21281023E58
:100190003B441B1AA4B2B3FBFEF00EFB103344EA3F
:1001A000034400FB01F1A14209D93C1900F1FF33DE
:1001B00080F00181A14240F2FE8002383C44641A82
:1001C00040EA064000211DB1D4400023C5E90043A8
:1001D000BDE8F08702B9FFDEB2FA82F2002A4FD101
:1001E000CB1B4FEA174E1FFA87F80121B3FBFEFC29
:1001F000260C0EFB1C3346EA034608FB0CF3B34205
:1002000007D9BE190CF1FF3002D2B34200F2EB80E5
:100210008446F61AA3B2B6FBFEF00EFB106643EA64
:10022000064408FB00F8A04507D93C1900F1FF334C
:1002300002D2A04500F2D2801846A4EB080440EA9E
:100240000C40C0E78B4208D9002D00F0AF800021A0
:10025000C5E900060846BDE8F087B3FA83F1002936
:1002600049D1B34202D3824200F2BB80841A66EBCA
:10027000030301209C46002DAAD0C5E9004CA7E746
:10028000C2F120039740D8409140DE404FEA174E1C
:1002900008434FEA104CB6FBFEF11FFA87F80EFB3D
:1002A00011664CEA064601FB08F3B34204FA02F475
:1002B00009D9BE1901F1FF3C80F08E80B34240F2B3
:1002C0008B8002393E44F31A86B2B3FBFEF00EFB7C
:1002D000103346EA034600FB08F3B34207D9BE19C0
:1002E00000F1FF3C74D2B34272D902383E44F31A93
:1002F00040EA01417AE7C1F1200703FA01F422FA4A
:1003000007F31C4320FA07F906FA01F34FEA144CED
:10031000FE4049EA03094FEA1943B6FBFCFE1FFA07
:1003200084F80CFB1E6643EA06460EFB08FAB2454B
:1003300002FA01F200FA01F308D9A6190EF1FF3012
:1003400048D2B24546D9AEF1020E2644A6EB0A06C3
:100350001FFA89F9B6FBFCF00CFB106649EA064669
:1003600000FB08F8B04507D9A61900F1FF3C2DD2D3
:10037000B0452BD90238264440EA0E40A6EB0806C9
:10038000A0FB02894E45C446CE4618D315D075B39E
:10039000B3EB0C0266EB0E0606FA07F722FA01F33E
:1003A000CE401F43C5E90076002111E729462846C3
:1003B0000EE76646EDE6184601E74345E7D2B8EB9F
:1003C000020C69EB04040138A646E0E76046D3E777
:1003D00060468CE78646B9E7614674E702383C44DC
:1003E0002BE7084647E7ACF1020C3E4411E72946EB
:1003F000EEE600BF704700BF0149024802F0AEBC04
:10040000BC3A0000D03A00002DE9F04F87B00F460B
:100410001946109B9DF844B09DF848A01F4C064615
:100420001425104698464FEAE37950EA010319D1A2
:10043000142D139C14BF013530232C4408BF8DF8B4
:100440001430152C1BD0153C002C1ADC1DF80500AF
:1004500039460135B047152DF8D1002C19DC07B00D
:10046000BDE8F08F42464B46FFF74AFEA25C0DF80E
:10047000052084460B4660461946013DD5E7002419
:10048000E4E7BBF1000FE1D039465046B047013CEC
:10049000DAE739465046B047013CDEE7E13A000072
:1004A0000B6801330B60014B1B68184700000020EC
:1004B000014B1860704700BF000000202DE9F04F8D
:1004C000002687B005468B461C4602F1FF394FF0E7
:1004D000FF383746002307E06BB9252800F0FC8081
:1004E00059460493A847049B19F8010F0028F3D13B
:1004F00007B0BDE8F08F7A280AD8622810D83028D3
:1005000052D045D8252800F0E5802D2800F0EA805B
:1005100059462520A84799F800005946A847D9E729
:10052000A0F16302172AF3D801A151F822F000BF0D
:10053000CD060000F10500001105000011050000C6
:1005400011050000D3050000F105000011050000B1
:1005500011050000D3050000110500001105000081
:1005600011050000550600001105000011050000EE
:100570009706000011050000F105000011050000BC
:10058000110500009905000011050000D3050000C9
:10059000392815D95828BBD199F80030702B63D170
:1005A00054F8042B00236AE0B8F1000F0BDA002F97
:1005B00000F09A80A0F13008002F08BF022793E7CF
:1005C000B8F1000FF6DB0A2202FB0808A8F1300898
:1005D000F2E7682803D1682E06D1482684E76C2804
:1005E00002D16C2E00F08280002E91D106467BE76E
:1005F0007A2E03D154F8042BD31708E06C2EF9D0CF
:100600004C2EF7D1073424F00704F4E802237528B0
:100610000FD0002A73F100010BDA59462D20CDE9E5
:100620000423A847DDE90423524263EB430308F1A6
:10063000FF38F91E18BF0121012F0CBF30202020E8
:10064000CDE9020801910A21009128465946FFF799
:10065000DBFE3FE759463020A84759467820A84797
:100660004FF00808012797E76C2E99D04C2E97D1B0
:10067000E31D23F007031C465B6854F8082BF91EA2
:1006800018BF0121012F0CBF302020200191CDE99E
:1006900002081021D8E7A2465AF8043B1C4621461E
:1006A00014F8010B40B9032F22D1CC1AA8EB040493
:1006B000002C06DC54460DE759460493A847049BDA
:1006C000EDE759462020A847013CF1E754F8040B18
:1006D000594623E7594621E71E461F464FF0FF388B
:1006E000012301E70327FFE60127FDE64C26FBE691
:1006F00054460346F8E600BF07B50B460021024604
:100700000191034801A9FFF7D9FE03B05DF804FB8E
:10071000A10400002DE9F84FB0F8189019F008086E
:10072000044693460DD001290CBF49F0100949F049
:100730002009A0F818908BF31188BFF36F8FBDE8E4
:10074000F88F09F00709022907D1204602F013FBB0
:100750000028F0D00128238B50D16769218B002F0E
:1007600015DA256821F00701C4E9008841F001018C
:1007700021830026218B01F0070ACA4502D0A36815
:10078000002B5CD10DB9002E74D0002358E001F08D
:1007900007035A1F012A20D821F00701062B2568DC
:1007A00089B2C4E900880CD1002D2B4638BF002344
:1007B0002BB1628B1B6801326283002BF8D141F0B0
:1007C00002012183204602F0D6FA06460028D1D045
:1007D000238B43F020032383CBE7042B0CD121F0A0
:1007E000070189B22183204602F0C5FA0546002898
:1007F000BFD041F0200121830025BAE7032809D1A9
:10080000226923F00703166843F0060323830025BB
:100810002F46AFE7042806D1226923F00703566864
:1008200043F00403F2E7052806D1226923F0070309
:10083000966843F00503E9E700252E46E8E7012323
:1008400041F0080121838BF31188BFF36F8F03BB45
:10085000002D33D116B121492046B0474FF0200377
:10086000EFF3118B83F31188BFF36F8F238B23F08A
:1008700008032383238BDA0628D523F01003238370
:100880000121B4F8189009F0070900297FF45BAF43
:1008900051E7A1680029DBD00B68D1F804B0002B28
:1008A00038BF0023994652463B462046D847B9F107
:1008B000000FCDD0D9F800304946EEE729463B4637
:1008C000524620462D6802F072FAC1E713F020016B
:1008D0001EBF23F0200323830221D2E7DB2D00007B
:1008E00010B50748074C01F0BBFB074B18602046CA
:1008F00000F044FD2046FFF7DBFD002010BD00BFE7
:10090000F23A00000D090000C00100200A2838B5A5
:10091000074D044604D1286883680D215B68984719
:1009200028688368E1B25B689847204638BD00BFFD
:10093000C00100202DE9F0410E4FFA68841AA3107F
:100940000D4C5C430546E4B20C2000FB04200E462F
:100950004021084402F0AAFB011E05DB7B6803EB83
:10096000C40463689847002128463346BDE8F04137
:10097000184700BF2C000020B76DDBB62DE9F0470B
:10098000DFF85080D8F80C60841BA3100F4C5C4338
:10099000E4B20C256543814605F140000F46304422
:1009A000402102F09CFB011E0ADB094A7319C3E9CE
:1009B0000E27D8F8043053F83430BDE8F047184714
:1009C00048463B46BDE8F047184700BFB76DDBB669
:1009D000413100002C000020002270B501210446A6
:1009E000104600F04FFA002000F02EFA0F4801F0F8
:1009F00021FA0F4B984215D101F02CFAE6680D4907
:100A0000304602F007FA00280BDB01253564E46864
:100A1000084904F11C0002F0FDF9002801DBE5643F
:100A2000002070BD6FF00400FBE700BF710A0000FA
:100A30000000AD0B0C3A00002DE9F0410B4E0146D1
:100A40000C23F0684B43C418D4E90E5700224033FE
:100A5000A263184402F061FB2DB13A4630462B46A2
:100A6000BDE8F0411847BDE8F08100BF2C00002030
:100A700010B1012805D07047034BDB681B6C5B0786
:100A800001D1FFF7D9BF70472C00002008B54FF007
:100A90002003EFF3118183F31188BFF36F8F134AA3
:100AA000136843F0020013F0010310600ED04FF002
:100AB0008042D2F80C34D2F80C2413F0010305D094
:100AC0000B4BD868403002F028FB012381F31188DA
:100AD000BFF36F8F23B1BDE808400020FFF7ACBF24
:100AE000BDE80840012001F0C7B900BF2402002082
:100AF0002C000020094BBFF35B8F53E8002F22F03E
:100B0000020143E800100028F7D1BFF35B8FD30741
:100B100002D4012001F0CEB9704700BF24020020AA
:100B200010B588B000230122CDE906320193094BAC
:100B300004AC01AACDE90444CDE9023402F033FB50
:100B4000002805DB4FF480420023204601F0CEFE52
:100B500008B010BD5331000010B51149BFF35B8FD1
:100B60000446012251E8003F41E800200028F9D165
:100B7000BFF35B8F43B90B49C8680B491C304B600E
:100B8000CB608A6002F059F9012C06D0022C06D104
:100B90000120BDE8104002F0E5BA0020F9E710BDE1
:100BA000280200202C000020C4010020821C084BD9
:100BB00022F07F42C3F84025D3F80425904200D1AB
:100BC0007047D3F80405821C22F07F42F2E700BF91
:100BD00000100140074B00221A601B68064A074BB1
:100BE000D3F840051368C01A20F07F400344136017
:100BF00001F0FABF401101402C020020001001401A
:100C000038B5104D104B0024C5F808451C601B6812
:100C10000E4B4FF40032C3F880214FF48033C5F8F7
:100C2000043322460121112000F02CF9112000F09C
:100C30000BF9074A0123136020462B60FFF78CFF56
:100C4000204638BD001001404011014000E100E0A5
:100C500008100140F8B52B4B2B4C1968D4F804252B
:100C60002A4D521AB0F1FF3F08BF284622F07F43B9
:100C7000120236D4013820EAE070A842A8BF284604
:100C800001331844A84294BF0D184D194FF4803118
:100C9000C4F80813D4F80425D4F840351C4E0027B6
:100CA0009B1A376023F07F433068012B22F07F408E
:100CB000C4F84005C4F8441304D10F2002F04CFDE1
:100CC00037603368134B4FF40032C3F88021D4F8F7
:100CD00004052B1A23F07F43012B04D1FFF766FF95
:100CE0000BE00020CCE725F07F43C4F84035D4F872
:100CF00004052D1A023D2B02F0D44FF48033C4F8C2
:100D00000433F8BD2C02002000100140FFFF7F00DB
:100D10004011014000E100E04FF02002EFF31183A9
:100D200082F31188BFF36F8F064AD2F80405064A92
:100D30001268801A20F07F4083F31188BFF36F8F11
:100D4000704700BF001001402C02002010B5114C6C
:100D5000114AA2610323C4E90433104BE361226604
:100D60004FF480630E4A0F4923626266002310220B
:100D7000E01DA3626362E3622367E3666367A266C2
:100D800002F049FA0849204602F045FA2023A371EF
:100D900010BD00BF30020020093B00007C03002092
:100DA0006C030020123B0000163B0000094A0A4970
:100DB00093680968D967094998674B6843F080537D
:100DC0004B60002383F31188BFF36F8F9368D86F54
:100DD000704700BF2C030020B83A000000ED00E08F
:100DE0000F498A684FF038001044EFF3098C80E80F
:100DF000F01F202080F31188BFF36F8F094F4FF051
:100E000000664A6A8A603E60906F0023936780F3B1
:100E1000118802F1380090E8F01F8CF309887047C0
:100E20002C03002004ED00E01EF0040F0CBFEFF3D4
:100E30000880EFF30980816911F8021C0229FFD0B4
:100E400001B502F0DDF901BD43B2002B08DB012240
:100E500000F01F0002FA00F05B09024A42F823008A
:100E6000704700BF00E100E0054B420900F01F00A1
:100E700053F82220012303FA00F01040704700BF0E
:100E800000E100E043B2002BA8BF03F1604301F191
:100E90000101B8BF064B4FEA4111ACBF03F56143F6
:100EA00000F00F00C9B2B4BF195483F800137047A3
:100EB00014ED00E042F8203C009B42F81C3C0A493B
:100EC000019B42F8183C029B42F8143C21F00101BE
:100ED0004FF0807342F8043C42F8081C0023203A8B
:100EE00082658367704700BFCD2E000008B50646B7
:100EF0000D46144600F096F9074B9E60204685F398
:100F00000988002163B681F31188BFF36F8F002237
:100F1000002301F0DBFF00BF2C0300200149102259
:100F20000A60704710ED00E072B6404080F311880F
:100F3000BFF36F8FBFF34F8F30BF62B6BFF36F8FBA
:100F4000704700BF30BFFFF7FDBF00BF0E4A08B5B6
:100F50000E4B22F07F029A60BFF34F8FBFF36F8F6B
:100F6000D3F8882022F47002C3F88820EFF31483AA
:100F700023F0040383F3148801F0B0F801F0B8F80B
:100F800000F01EF901F0F2F80000000000ED00E0B2
:100F900001B572B60B4A106A00281EBF002111620B
:100FA00002F00FFB62B6EFF30580A0F110004FEAEC
:100FB000C0000549014409C99847BDE801400349FB
:100FC000084700002C03002058380000A51100003D
:100FD00002F088F9202080F3118808484FF400615E
:100FE000401880F30988EFF314800221084380F34E
:100FF0001488BFF36F8FFFF7A9FF0000C00C00201B
:10100000EFF30880EFF3098101B5724600F04EF866
:1010100001BD00BF0C4B9A6A9A6A9A6A920708D57A
:101020005A6B9A6A120604D518B19A6A22F08002A5
:101030009A62054B9A6A9A6A9A6A9A6A002042F002
:10104000FF029A620870704700ED00E00D4B9A6A4B
:101050009A6A9A6A920508D59A6B9A6A120404D51C
:1010600018B19A6A22F400429A62064B9A6A9A6A06
:10107000D20558BF9A6A9A6A002042F47F429A6267
:101080000870704700ED00E0074B9A6A9A6A9A6A06
:101090009A6A9A6A9A6A9A6A6FEA02426FEA1242F6
:1010A0009A620020704700BF00ED00E070B5364B3B
:1010B0005B688AB00E46C3F30803002585F31188E8
:1010C000BFF36F8F02F07F41B1F17F4F11D102F07A
:1010D0000C0108290DD0110701D406460125002274
:1010E000033B8DF80720032B47D8DFE803F0043ECD
:1010F000423B2E46F3E7244BDA6A92073DD4DC6A82
:1011000014F0804408D028331B78EBB10DF10701AF
:101110000120FFF77FFF04469DF8073093B9202296
:10112000314602A802F08DF8099B45B3C3F30802CB
:1011300022B96FEA53236FEA4323099302A9204699
:1011400002F05CF80AB070BD104B1B782BB10DF1AA
:1011500007010120FFF77AFFDDE70D4B188884B205
:10116000002CD9D0FFF790FFD5E70DF10701002043
:10117000CFE70DF107010020ECE70024CCE723F4D2
:10118000FF7323F00103D8E700ED00E029ED00E054
:101190002AED00E0024A536943F01003536170479F
:1011A00000ED00E0044B9968586A884203D0034977
:1011B0004FF080520A6070472C03002004ED00E0DD
:1011C000044800232021C2180133302B82F8001379
:1011D000F9D1704700E100E038B504464FF0200334
:1011E000EFF3118583F31188BFF36F8F01F000FADD
:1011F0000A4B9B68A3420BD1094B5A68C2F3080201
:1012000012B92846FFF7D2FD5A6842F080525A6060
:101210002846BDE8384002F0D6B900BF2C030020B4
:1012200000ED00E01FB5084B0193084B0293084BFB
:10123000039301AB0093074A074B0121684600F076
:1012400093F805B05DF804FB0000002000000000EA
:1012500000000B060000002000000420DFF884C01E
:10126000F0B50646002710468F4200DBF0BD56F869
:1012700027E0DEF8044094B343B1651E2C4219D137
:101280001F2C17D9DEF80020154213D1202CC2B232
:10129000DEF80050DEF808000FD9B4F1004F0ED888
:1012A000013CB4FA84F4C4F11F046400072A44EA40
:1012B000000406D96FF01500D8E70824F6E73E24AD
:1012C000F4E725F01F05154345F0100544F001042F
:1012D000CCF80820501CCCF80C50CCF8104001374A
:1012E000C2E700BF90ED00E0034B05225A60BFF358
:1012F0004F8FBFF36F8F704790ED00E0BFF35F8FAC
:10130000014B00225A60704790ED00E013490868D5
:10131000082810B51ED8FFF7F1FF114C49680022CC
:10132000904201F10C0105D10E4B1870FFF7DCFF64
:10133000002010BDA26051F80C3C23F01F031343A2
:1013400043F01003E36051F8043C43F001032361D0
:101350000132E5E74FF0FF30EBE700BF183A00003D
:1013600090ED00E07C07002010B5034C01232278AB
:10137000FFF774FF207010BD7C070020014B186040
:10138000704700BF040000204FF02003EFF31182EC
:1013900083F31188BFF36F8F06490123C1F84035ED
:1013A0004FF08041C1F8783582F31188BFF36F8F19
:1013B0000020704700E0014020B1034B800143F062
:1013C00001031847704700BFE039000008B5094B1A
:1013D0001A786AB90121197006200521FFF752FD1C
:1013E0000620FFF731FD044B4FF00042C3F8042301
:1013F000002008BD7D070020006000402B4BF0B5A9
:1014000044682B481340834241D00DD8062B15D099
:1014100005D89BB1022B3CD06FF0150036E0B3F538
:10142000801FF9D1012309E02248834233D0B3F56C
:10143000A00F32D0B3F5800FEED10223D00654BFF7
:10144000C2F34016032682F480759705C2F340204C
:10145000C5F3002507D512F4006F67681FD001227D
:101460008A40C7F80825227A134C012A01F01F018F
:1014700040EA450218BF4FF0A04442EA032301F5B9
:10148000E07143EA860344F821300020F0BD0723D1
:10149000D4E70423D2E70523D0E70323CEE75205A0
:1014A00042BF01228A40C7F80C25DCE70600F000A5
:1014B00006001000020040000003005000F01F0270
:1014C0004009084B012818BF4FF0A04303EB8203EB
:1014D000D3F8002722F4403242EA0142C3F8002741
:1014E000704700BF00030050F8B50D464168C7685B
:1014F000087A05F01F06B2F5A03F46EA401610D163
:101500007009012806F01F016B4801F5E07118BF52
:101510004FF0A04050F82110CC0707D56FF0220003
:10152000BDE0B2F5005FF96800F0AA80F86801211B
:10153000A94001437869F9600121A940B2F5A03FB3
:10154000BA690CBF08438843B3F5C02F0CBF0A43E8
:101550008A43BA613A697861B3F5802F0CBF1143B1
:1015600022EA0101554A3961D2F804130023C9B2B5
:1015700003F5A27052F82000C0F30520864240F027
:10158000848021FA03F0C0077FD5012199404C489F
:10159000BFF35B8FCC4350E800CF0CEA040C40E86B
:1015A00000CEBEF1000FF6D1BFF35B8F9B0003F1BD
:1015B000804303F5C043D3F8100520F00100C3F8C1
:1015C0001005C2F8081300213046FFF777FFFB68CB
:1015D000EB4013F0010351D07B69EB4013F00104A1
:1015E0005ED0BB69EB40DB075FBF396921FA05F5C7
:1015F00005F00105C5F10205314954BFEDB20325DF
:101600000022012707FA02F4BFF35B8F51E8000FB5
:1016100040EA040341E8003CBCF1000FF6D1BFF3FF
:101620005B8FD04010F0010334D1910001F1804173
:1016300001F5C0414032D1F8100520F44F3020F4BC
:1016400040709200C1F81005360292B2D1F8100530
:1016500006F47C5602F1804202F5C04246EA054695
:101660000643C1F8106513601268D1F8102542F0E6
:101670000102C1F81025114AC2F8044318460EE0D1
:101680000120A84021EA000154E70133082B7FF430
:101690006FAF98E70132082AB4D16FF01200F8BD9D
:1016A0003969E94001F00101C1F103013046C9B2D5
:1016B000FFF704FF2046F2E70003005000600040FF
:1016C00010030020F7B50026CDE90066284D2C68F0
:1016D0004CB1284801F072FE0090274801F06EFEE0
:1016E00001902E602B68254D002201269446D5F8E6
:1016F000043306FA02F119421BD0910001F1804136
:1017000001F5C2410B68A3B102F5A27302AF55F80F
:101710002330C1F800C0C3F3403007EB8000C3F3AF
:10172000042350F8087C06FA03F33B4340F8083CD6
:101730000B680132082ADAD1009A22B10D49C86833
:10174000043001F0D1FD019A2AB10A49C86910316B
:10175000043001F0C9FD44B1064801F058FE0648C6
:1017600003B0BDE8F04001F052BE03B0F0BD00BFD1
:101770007C6100406C0000207C0000200060004084
:10178000064B1A683AB1002018601B68044BD3F866
:1017900018350B7070474FF0FF307047082100403C
:1017A00000200040024BD3F88004C3F88004704747
:1017B0000020004070B54B79012B24D0032B1FD1A2
:1017C00010268B79032B1BD1CC790CB1012C17D1AE
:1017D0000A7912B1022A13D10E220B68B3F5164F03
:1017E00062D02DD8B3F5165F60D016D8B3F5966FDA
:1017F0005ED00AD8B3F5967F5DD0B3F5167F5DD085
:101800006FF022004FE00026DBE7B3F5166F58D0EB
:10181000B3F5965FF4D1354B39E0B3F5E14F53D0D2
:1018200007D8B3F5615F51D0B3F5964FE8D1304B8F
:101830002DE047F61225AB42E2D14FF4000326E03B
:10184000B3F5613F45D011D8B3F5963F43D008D8E2
:101850004DF6C025AB4240D0B3F5614FD0D1254BFA
:1018600015E0B3F5E13FCBD1234B10E0B3F5612F89
:1018700036D007D8214DAB4234D0B3F5E12FBFD1DC
:101880001F4B04E01F4DAB42BAD14FF080531E4DA9
:1018900034432243C5F82435C5F86C25C36803C911
:1018A00083E80300002070BD184BF0E7184BEEE70B
:1018B0004FF49E23EBE74FF4A033E8E74FF41C33DB
:1018C000E5E74FF41D23E2E7124BE0E74FF46C131A
:1018D000DDE7114BDBE7114BD9E74FF46503D6E7A2
:1018E0000F4BD4E74FF08063D1E700BF00B0130087
:1018F00000A04E0000F0EB0000E0D70190D0030004
:1019000000705F0740420F000020004000509D0023
:101910000050270000F0750000B0AF0300903A01BE
:1019200000D0BE0EF8B50E4601F010FF194D70BB89
:1019300064240127BFF35B8F55E8003F002B03D1E0
:1019400045E80072002AF7D1BFF35B8F07D0212052
:101950000021013C00F084FF14F0FF04EAD10E4C9A
:101960000022226022680D4A01211160C2F814652C
:101970004FF47A76236823B9012001F0E6FD013E99
:10198000F8D1074B01221A6000232B60F8BD012318
:101990002B60E4E7140300201C21004008200040D5
:1019A0000C20004000F01F0140090128044B4FF0BB
:1019B000010218BF4FF0A0438A40C3F808257047C2
:1019C00000030050F8B5184C00260546C4F8006521
:1019D0000620FFF7E7FF4FF0A047062001F045FD86
:1019E0000823C7F82067C4F814350623C4F80C355B
:1019F0000520FFF7D7FF052001F037FD0523C7F8C5
:101A00001C67C4F808350723E968C4F81035284670
:101A1000FFF7D0FE38B90423C4F80035034B186033
:101A20001B6801232360F8BD00200040082100400E
:101A3000F0B54B79012B29D0032B24D110268B79BB
:101A4000032B20D1CC7924B1012C1CD143681B7904
:101A5000CBB10A7912B1022A15D10E220B68456862
:101A6000B3F5164F2D6864D02DD8B3F5165F63D04B
:101A700016D8B3F5966F61D00AD8B3F5967F60D0CB
:101A8000B3F5167F60D06FF0220051E00026D6E754
:101A9000B3F5166F5BD0B3F5965FF4D1364B3CE0EF
:101AA000B3F5E14F56D007D8B3F5615F54D0B3F525
:101AB000964FE8D1314B30E047F61227BB42E2D1D6
:101AC0004FF4000329E0B3F5613F47D013D8B3F5D5
:101AD000963F46D009D84DF6C027BB4243D0B3F558
:101AE000614FD0D14FF46B0317E0B3F5E13FCAD19A
:101AF0004FF0EB7311E0B3F5612F37D008D8204FCA
:101B0000BB4236D0B3F5E12FBDD14FF0E86304E01E
:101B10001C4FBB42B7D14FF08053C5F82435C36882
:101B200003C934432243C5F86C2583E80300002031
:101B3000F0BD4FF41D03F0E7134BEEE74FF49E2387
:101B4000EBE74FF4A033E8E74FF41C33E5E74FF43D
:101B50001D23E2E70D4BE0E70D4BDEE74FF06C7322
:101B6000DBE70C4BD9E74FF46503D6E74FF0706322
:101B7000D3E74FF08063D0E700B0130000A04E0021
:101B800090D0030040420F000050270000C07500B5
:101B900000F03A0000903A0100F01F0240090128CD
:101BA000044B02F5E07218BF4FF0A043032143F845
:101BB000221070470003005000F01F014009012867
:101BC000044B4FF0010218BF4FF0A0438A40C3F806
:101BD0000825704700030050F8B54368C6681C68C4
:101BE00000270546C4F800752220FFF7E5FF2220F4
:101BF000FFF7D2FF114BE968C3F804772223C4F83A
:101C00000C352123C4F814354FF0FF33C4F80835E0
:101C10002846C4F81035FFF70BFF68B90823C4F84D
:101C20000035C4F81001D4F810310C360123C4F883
:101C30003465C4F838352360F8BD00BF0003005098
:101C4000034B1868A0F1080358425841704700BF81
:101C500030010010064B1B68082B06D1054B1B6892
:101C6000032B02D8044AD05C70470020704700BFA5
:101C70003001001034010010413B000008B5FFF7AF
:101C8000DFFF40B14FF080430022C3F80C21C3F8BE
:101C90001021C3F83825FFF7D3FF002846D04FF0B6
:101CA0008052584BD2F80414C3F82015D2F8081407
:101CB000C3F82415D2F80C14C3F82815D2F8101460
:101CC000C3F82C15D2F81414C3F83015D2F8181430
:101CD000C3F83415D2F81C14C3F84015D2F82014F8
:101CE000C3F84415D2F82414C3F84815D2F82814C0
:101CF000C3F84C15D2F82C14C3F85015D2F8301490
:101D0000C3F85415D2F83414C3F86015D2F8381457
:101D1000C3F86415D2F83C14C3F86815D2F840141F
:101D2000C3F86C15D2F84424C3F87025FFF792FF6E
:101D300010B1354B354A1A60FFF78CFF18B1344BA0
:101D4000FB22C3F81825FFF785FF48B13149324B14
:101D50000A681B6822F00F0203F00F0313430B60A5
:101D6000FFF778FF18B12D4B4FF400721A60FFF7A0
:101D700067FF48B14FF08043D3F80024D20744BF37
:101D80006FF00102C3F800244FF01023D3F80022B3
:101D9000002A03DBD3F80432002B2FDA204B012278
:101DA000C3F80425D3F80024002AFBD04FF01022FA
:101DB0001221C2F80012D3F80024002AFBD04FF001
:101DC00010231222C3F80422154B1A46D3F800142C
:101DD0000029FBD00021C3F80415D2F80034002BF1
:101DE000FBD0BFF34F8F0F490F4BCA6802F4E0627C
:101DF0001343CB60BFF34F8F00BFFDE70B4B0C4A83
:101E00001A6008BD00C000408C56004048810300A5
:101E100000F00040E40E00405802001040960240DE
:101E200000E0014000ED00E00400FA052000002081
:101E30000090D003044B1A7922B9012218609A80CD
:101E40000248704702487047180300200000AD0B9D
:101E50000C00AD0B08B50020FFF706F808B9FEF737
:101E6000F3FF4FF080420123C2F81835014A137086
:101E700008BD00BF7E07002010B101280BD07047BD
:101E80000A4B18601B684FF080430222C3F80423FA
:101E900001229A607047064B00221A601B684FF0BF
:101EA0008043C3F804031860704700BF040100407A
:101EB0000001004038B510B1012818D038BD4FF0EE
:101EC00080430222C3F80823184A10601268184A97
:101ED0000121116042F210751C46D4F81834DB035E
:101EE000ECD5012001F031FB013DF6D1E6E7114BC5
:101EF0004FF080440022C4F808031A601B680E4BA0
:101F000042F210751860D4F80C34D4F80C24D203C3
:101F100003F0010305D523B1012001F016FB013DBB
:101F2000F1D1064B00225A71C8E700BF04010040FE
:101F30000C00004000010040040000401803002095
:101F4000114B1A6810B56AB100221A601B684FF075
:101F500080430122C3F808230C4B587910B95A71F9
:101F60001B6898470A4B1A686AB100221A601B68FE
:101F70004FF080430222C3F80823044BBDE8104011
:101F80001B680120184710BD000100401803002005
:101F9000040100404FF0804310B5D3F804436207BA
:101FA00007D54FF4847001F0D2FA10B11E4B1B68B4
:101FB0009847A30608D54FF48A7001F0C8FA18B103
:101FC0001A4B00201B689847600608D54FF48C70A8
:101FD00001F0BDFA18B1154B01201B689847210686
:101FE00008D54FF48E7001F0B2FA18B1104B0020F2
:101FF0001B689847E20508D54FF4907001F0A7FAE6
:1020000018B10B4B01201B689847A3050AD54FF464
:10201000927001F09CFA28B1054BBDE810401B6896
:102020000220184710BD00BF200300202403002019
:1020300028030020F8B5094B53F820400130002751
:1020400053F82060A64200D8F8BDD4E900352846F0
:10205000984708B105B1AF600834F3E7A43A00002F
:102060000F4B70B50F4C05461E469C4204D10D4CDB
:10207000B44208D1002410E0A26812B12268AA423A
:102080000BD01034F1E7A3680BB91034F0E72168E6
:10209000284601F0CAF80028F7D1204670BD00BFDD
:1020A0008C0000202C00002008B50B4D4FF02002C2
:1020B000EFF3118382F31188BFF36F8F01F064FB9C
:1020C000012102280446D8BF084601F06DFB2C62AE
:1020D000FEF72AFFEAE700BF2C0300200248034A6C
:1020E0000021121A01F0D8B8B800002080070020A3
:1020F00008B50648064A0749121A01F0A2F8BDE8D9
:102100000840054A0549064801F09BB80000002038
:10211000B4000020943B000000000000943B00004D
:102120000000002008B50C4B012202201A70FFF7B6
:1021300081FF0A4A0A490B4800F010FE0320FFF70E
:1021400079FF00F02DFCFEF757F9074A137B23F0C7
:102150000103137308BD00BF7F0700208C3B000004
:10216000453B0000663B0000380100202DE9804817
:10217000DFF8F490A7B089F30888334D334E6B69CC
:10218000DFF8E8A0324F43F4007300246B61E023D2
:1021900085F82230EC772C766C76AC766B6A43F45B
:1021A000E0236B62FEF7F6FFFEF7B8FE4FF0FF3359
:1021B000AB62EB62274D40F20113ADF8243006AB61
:1021C000AB602046CDE92044FFF734FF0120FFF744
:1021D00031FF4FF0010B00F0E9FA1F4B6E621F490F
:1021E00005934FF480625346CDE9034BCDE901449A
:1021F0000094304600F0A4FB737B804623F0040378
:102200003046737301F0FFF90F23CDE902431449FF
:10221000144B4FF4A072CDE904B4CDE90044384624
:1022200000F08EFB7B7BEF6023F004037B7305F1F2
:102230001803C5E906332C75C5F80490524641468B
:102240003046FEF753FE00BF00ED00E038010020ED
:10225000B80000202C0300208D3B000080070020E8
:10226000800B0020A9200000C014002025210000C0
:1022700010B5084C23685BB1FEF74EFD034620689D
:10228000054A0344BDE810401361002101F08CBAF7
:1022900010BD00BF640300202C030020F8B50546E4
:1022A0000C464FF02003EFF3118683F31188BFF340
:1022B0006F8F0D4B00224FF4004740F2E7300021B2
:1022C0001A61E7FB05014FF47A720023FDF718FF4E
:1022D000064B1860064B1C60FFF7CAFF86F3118897
:1022E000BFF36F8FF8BD00BF2C03002064030020F4
:1022F0006003002049B9EFF3058030B9054B5A6AF5
:102300009B689A4201D0FEF751BD81F31188BFF35B
:102310006F8F70472C0300204FF02003EFF31181E3
:1023200083F31188BFF36F8F044B9A68D37B013B13
:10233000D37381F31188BFF36F8F70472C03002094
:10234000094B03F12802824205D19B688B4202D1DE
:102350004B7BDB0606D1D1E9003213605A600023C3
:10236000C1E90033704700BF2C03002070B5104C4A
:10237000064604F1280001F03CF9A368597B0546A4
:10238000880644BF41F00801597305B9E5684EB9A4
:102390005A7BD20606D1AA6922B9DA897F2A01D9E5
:1023A000636270BDAB4201D0FFF762FF6562F8E780
:1023B0002C03002010B54FF02003EFF3118483F3BA
:1023C0001188BFF36F8F084B9A68D37B0133D373A7
:1023D0000020FFF7CBFF84F31188BFF36F8FBDE8B8
:1023E000104001F0FCB800BF2C03002070B4437B08
:1023F000DB062AD1836943BB154A114651F8284FA1
:102400008C4218BF2346002BD46A38BF0023B3B1D7
:1024100090F90E6093F90E50AE4203DBA3420ED04A
:102420001B68F4E75A68C0E9003210605860437BCB
:1024300063F07F03437370BC0020FFF797BFC0E9D0
:102440000014D36A1860D062F1E770BC704700BF17
:102450002C03002010B54FF02002EFF3118482F31B
:102460001188BFF36F8F427B510704D484F3118826
:10247000BFF36F8F10BD22F004024273FFF7B6FF67
:1024800021460248BDE81040FFF734BF8007002016
:10249000F8B501464FF02003EFF3118483F3118860
:1024A000BFF36F8F90F90D30002B02DA1948FFF758
:1024B00047FF194A1046D56A50F8283F834208BFA3
:1024C0000023002B38BF0023EBB191F90E7093F974
:1024D0000E60B74203DB9D4215D01B68F4E75868D5
:1024E000C1E90030016059604B7B906863F07F0365
:1024F0004B73431A58425841FFF738FF84F3118851
:10250000BFF36F8FF8BDC1E90005D36A1960D162CE
:10251000EAE700BF540300202C03002038B5154A19
:10252000154B146801469868A0421C4603D1BDE8CB
:102530003840FFF79DBE00251560104A1268B2B101
:10254000C2897F2A13D80E4A90F90E50126895421C
:102550000DDB0C4A90420AD0826942B91A698A425C
:1025600002DCFFF795FFE2E7521A1A6138BD00233B
:102570002361FBE75C0300202C03002064030020A0
:1025800060030020B800002070B50446183001F048
:10259000E5F84FF02003EFF3118683F31188BFF3C2
:1025A0006F8F94F90D30002B07DA0F482146FFF7A3
:1025B000C7FE637B03F07F0363730C4D637BA868E6
:1025C00043F010036373031B58425841FFF7CEFEDC
:1025D00086F31188BFF36F8FAB68A34203D1BDE8C8
:1025E000704000F0FCBF70BD540300202C0300209D
:1025F000036E2DE9F041044603B1984704F1180039
:1026000001F0ACF84FF02003EFF3118683F311884B
:10261000BFF36F8F637BD80623D1A2690ABB19066B
:1026200007D51F482146FFF78BFE637B03F07F032E
:1026300063731C4B9868021B50425041FFF796FE93
:10264000637B43F00803637304F130080027256BB4
:10265000454500D095B986F31188BFF36F8FBDE86B
:10266000F0819B07ECD5A0682146FFF769FE637BEC
:1026700023F0020363730023A360E1E705F1180070
:1026800001F06CF8A8682946FFF75AFE6B7BAF6033
:1026900023F002036B73EF672846FFF7A7FED6E728
:1026A000540300202C03002008B590F90D30002BB6
:1026B000014606DA0748FFF743FE4B7B03F07F0332
:1026C0004B73054B9868431A58425841BDE808407F
:1026D000FFF74CBE540300202C030020F8B505463C
:1026E00001F07CF82C184FF02003EFF3118783F3EF
:1026F0001188BFF36F8F0D4E0D4BB068186000F05E
:10270000BDFFB0680B492A46EB17183000F0E4F91A
:10271000B268537B43F0100353733846FEF746FB11
:1027200001F05CF8201A20EAE070F8BD2C030020CC
:102730005C030020273600002DE9F04106461446D0
:102740001D464FF02003EFF3118783F31188BFF389
:102750006F8F00F0A3FF87F31188BFF36F8F6B1C9F
:1027600008BFB4F1FF3F08D022462B4606F11800FF
:102770000349BDE8F04100F0AFB9BDE8F08100BF0A
:102780002736000010B5074B9868074B0C461860B9
:102790001146DDE90223FFF7CFFF2046BDE81040D8
:1027A000FEF704BB2C0300205C030020044B002137
:1027B00003F12802C3E90A220846FFF76FBD00BFF4
:1027C0002C030020F8B5244C244BA2689A4230D048
:1027D0004FF02003EFF3118583F31188BFF36F8F60
:1027E000A16804F12800FFF7ABFDA36AA268E16AC3
:1027F000834208BF0023002B38BF00232BB392F97C
:102800000E7093F90E60B74203DB8B421DD01B683C
:10281000F4E75968C2E900310A605A60537B63F0FB
:102820007F0353730120FFF7A1FD85F31188BFF3E8
:102830006F8F4FF02003EFF3118083F31188BFF304
:102840006F8FBDE8F840FEF7B1BAC2E90001E36A54
:102850001A60E262E2E700BF2C030020B80000200B
:102860000B46013308BFB0F1FF3F10B506D10B4B4B
:102870009868FFF789FE4FF0FF3010BD044648B955
:10288000FFF7A0FF4FF47A7084FB0034D80B40EAC6
:102890004440F2E7FFF722FF0446F3E72C03002051
:1028A000014B9868704700BF2C03002038B50446E0
:1028B0004FF02003EFF3118583F31188BFF36F8F7F
:1028C00000F017FF48B10022C26700F09CFE2946C5
:1028D0000548BDE83840FFF70DBDD4E902329A4201
:1028E00018BF0133A360F2E78007002037B5144614
:1028F0001D464FF02003EFF3118183F31188BFF3DE
:102900006F8F836843B1013B836081F31188BFF30C
:102910006F8F002003B030BD54EA050306D181F368
:102920001188BFF36F8F6FF00F00F3E70246CDE918
:1029300000450248FFF726FFECE700BF80070020B4
:102940002DE9FF4100F13005C0E90C550E9D0573DE
:1029500004254573D61D0D9D85730C9A002526F020
:102960000706C0E90655C0E91A16C5730567029245
:102970000B9A019201EB06080A9A0092424604461D
:10298000FEF798FA054B9B68C4E9175503B15B6FD6
:102990006367404604B0BDE8F08100BF2C0300200F
:1029A0002DE9F0472A4E2B4D86B0B046B54205F1D1
:1029B000300410D3FFF7B0FC264CDFF89CA04FF496
:1029C000004940F2E7360027444521D306B0BDE870
:1029D000F047FFF7EFBC54F8043C059354F8103C63
:1029E000049354F8143C039354F8183C029354F89D
:1029F0001C3C019354F8203C009354E90A2354E909
:102A00000C01FFF79DFF54F8303CDD652546CDE70E
:102A1000636A5A1C0DD023EAE37330463946C9FB7A
:102A20000301B94208BFB042256804D12846FFF728
:102A300011FD3034C8E74FF47A720023FDF760FBD4
:102A400002460B4605F11800514600F045F8F0E744
:102A50008C0000208C00002027360000034B1B68F0
:102A60000BB9FEF759B90020704700BF680300207A
:102A700030B5036868B10A4A5268904209D043B140
:102A8000D3E90421D0E90445121945EB0101C3E95A
:102A90000421426813605A600023C0E9003330BD4E
:102AA000240000200A4B10B51C689C4208BF00247B
:102AB000FFF7D4FF44B12369181A064B1B6913B101
:102AC0009842A8BF184610BD6FF00040F5E700BF60
:102AD000240000202C0300202DE9F74F0191194616
:102AE0004B1C08BFB2F1FF3F82466CD0541C6FF004
:102AF000010341F100054FF0FF3BB3EB04086BEB22
:102B00000509B8F1000F79F100030FDBFFF7A6FF0D
:102B1000334AD2E9001C6FF001035B1A6BEB0C0225
:102B20001E1B62EB0507341A67EBE075019BCAF8C0
:102B300008304FF02003EFF3118683F31188BFF3C1
:102B40006F8FFFF78BFF012C75F10003254BB8BF8A
:102B500001241A68B8BF0025241845EBE0759A4295
:102B6000CAE9044501D05F6852B95A68CAF804201E
:102B70005A68CAF80030C2F800A0C3F804A014E0F4
:102B8000D2E90489DAE904454D4508BF44451DD220
:102B9000B8EB040069EB0501C2E904015168CAE918
:102BA0000021C1F800A0C2F804A01A689A4206D019
:102BB000924504D1FFF776FF0021FEF74BF886F32C
:102BC0001188BFF36F8F03B0BDE8F08FB4EB08003E
:102BD00065EB0901BA42CAE90401C6D01268C3E72D
:102BE000B8010020240000202DE9F74F0646FFF72A
:102BF00095FC4FF02003EFF3118483F31188BFF3AA
:102C00006F8F2D4DDFF8B4A0DFF8B4B02E605146C1
:102C1000D5F800C0DBF800006246D3175845CDE96F
:102C20000023DAE900890ED068B1D0E90467BB421D
:102C300008BFB4451ED2009BB6EB030C019B67EBAB
:102C40000306C0E904C6009B13EB0802019B4FF08A
:102C5000000643EB0903C1E900232E60FFF722FFC2
:102C60003146FDF7F7FF84F31188BFF36F8F03B090
:102C7000BDE8F08F18EB06084FF000024FF000039C
:102C800049EBE679C0E90423ACEB0606CAE9008902
:102C90002E60FFF7EDFE84F31188BFF36F8F83681A
:102CA00098474FF02003EFF3118483F31188BFF3AB
:102CB0006F8F0249ACE700BF68030020B801002015
:102CC0002400002010B54FF02003EFF3118483F3AC
:102CD0001188BFF36F8FFEF71FF8064BD3E900236F
:102CE000121843F1000384F31188BFF36F8F10466D
:102CF000194610BDB801002038B5064C064DAC424F
:102D000001D3002038BDD4E90112204600F06AFD4D
:102D10001434F4E78C0000208C000020034658B1E6
:102D2000426802F00302012A03D0032A04D1026898
:102D300012B10020986070476FF01500704742682C
:102D4000816002F00302032A4FF0000203460CBF29
:102D5000006810465A607047002070470FB407B5EE
:102D600004A951F8040B0191FDF7C6FC03B05DF80E
:102D700004EB04B07047038B13F0070305D103681D
:102D8000002B0CBF002003207047022B05D1438B82
:102D9000002B14BF002004207047012B05D10368CD
:102DA000002B0CBF002005207047002070472DE944
:102DB000F0410D4607461946281D90461E46FFF76E
:102DC000BEFF044638B13346424629463846A4463B
:102DD000BDE8F0416047BDE8F08110B44FF0200439
:102DE000EFF3118284F31188BFF36F8F416110BC40
:102DF0000121FDF78FBC10B50C4640B139B1081D5B
:102E0000FFF78CFF28B9A36833F0030301D06FF0FC
:102E1000150010BD38B50C46054658B151B10B68C8
:102E200043B14B6833B11C22002100F035FA2C610C
:102E3000002038BD6FF01500FBE770B504460E4664
:102E4000FFF7D9FF051E31DB4FF02003EFF31181AF
:102E500083F31188BFF36F8F638B208B4FF6FF7561
:102E6000AB4200F007022ED0022A0ED10133638359
:102E70001546012381F31188BFF36F8FB3B100238F
:102E800031462046FFF793FF10E0830701D0062A62
:102E90000ED100233360636893B9C4E90066154618
:102EA00062B90A4620460221FDF734FC284670BD6F
:102EB000052A0CBF6FF022056FF004050023D9E747
:102EC0001E606660EBE76FF00A05F7E7044608B599
:102ED000084611461A46A047FFF7E2FCFEF77CF9C8
:102EE000836800EBC101B3F5004F2CBF51F82200FD
:102EF00031F81200704700EBC1018068B0F5004F57
:102F00002CBF41F8223021F81230704708B5012259
:102F1000FFF7E6FF400808BD8368B3F5004F00EBFC
:102F2000C10108D34B681AB143F001034B607047ED
:102F300023F00103FAE74B881AB143F001034B80F9
:102F4000704723F00103FAE753000122FFF7D3BFD4
:102F500080680131B0F5004F2CBF02200120081A13
:102F6000B0FA80F0C0F11F0070472DE9F04104462F
:102F70000D46FFF7CBFFA368B3F5004F014601D321
:102F8000012835D02046FFF7E3FF04EB80021669E5
:102F90009EB9012303FA00F0E3680343E360294686
:102FA00015612B4602222046FFF7A5FF0322294682
:102FB0002046BDE8F041FFF79EBF02223146204681
:102FC000FFF78EFF02220346074629462046FFF7F9
:102FD00092FF3346032229462046FFF78CFF032247
:102FE00039462B462046FFF786FF02223146DFE7AF
:102FF000BDE8F081B2F5802FF8B52CBF0825042577
:10300000551BCC1D0D4424F0070425F007050022B4
:1030100000232D1B0460ED08C4E90023002329468A
:10302000A560E3602046FFF793FF86001B36411C36
:10303000F60804F1100218468B4229DB324620467E
:103040000021FFF781FFAF1B204601220021FFF77F
:1030500063FF3A463146FFF777FF33463146204655
:103060000022FFF748FF294620460022FFF76CFFA9
:103070003B46294620460022FFF73DFF29462046D1
:103080000122FFF749FF3146BDE8F840FFF76DBF69
:1030900042F8040B0133CFE77047C268CBB20C2172
:1030A00003FB0121086C00F0070070474FF020037C
:1030B000EFF3118283F31188BFF36F8F036813F06E
:1030C000C00301D08B4207D101230360002082F3AB
:1030D0001188BFF36F8F70474FF0FF30F7E710B5DF
:1030E0004FF02003EFF3118283F31188BFF36F8F4A
:1030F000036803F00704012C06D10160002082F36D
:103100001188BFF36F8F10BD03F0C0038B4214BF53
:103110004FF0FF306FF00F00F1E74FF02003EFF3B7
:10312000118283F31188BFF36F8F036803F0C0032C
:1031300043F00203036082F31188BFF36F8F70477F
:10314000C06810B4CBB21C2403FB0400002110BCE7
:1031500010471046FFF7AABB0020FEF7ABBE0020C9
:10316000FEF78ABE4FF08042D2F81834D2F8181415
:10317000C903F9D503F003039842F5D1704738B578
:10318000CCB20C2305466343C06840338021184409
:10319000FFF78CFF002805DB696801EBC404636856
:1031A0009847002038BD2DE9F041CDB24FF00C0812
:1031B000C46808FB05F8064608F140008021204459
:1031C0001746FFF78CFF002809DB44447B68A363A4
:1031D000BB68E363736853F8353098470020BDE857
:1031E000F08170477047FDF7B1BD08B5FFF7FBFFF1
:1031F000002008BD0021012000F000B800F0C6B991
:103200000146006800F0C2B908B5FDF79BFEBDE8B5
:103210000840FDF7C7BF0139034611F8012F0AB96D
:103220001A70704703F8012BF7E7431E013913F8B2
:10323000012F11F8010F824201D1002AF7D1101A93
:103240007047F0B581EA0004A50703460BD0013BA7
:103250000A4491421BD1F0BD002AFCD011F8014B69
:1032600003F8014B013A9C07F6D122F003041D1F1D
:1032700096080F19B94205D16FF0030505FB062228
:103280002344E4E751F804CB45F804CFF2E711F802
:10329000014B03F8014FDCE770B5C9B203469C0748
:1032A00011D141EA012422F0030644EA04451E44F8
:1032B0009408B3420DD16FF0030505FB04221A44B4
:1032C000934209D170BD002AFCD003F8011B013ADA
:1032D000E5E743F8045BECE703F8011BF0E74FF088
:1032E000FF307047FEF7CABC70B50E460168154640
:1032F00089B10C68002C38BF00248A682A4002D0AB
:103300004B683046984734B12368002B38BF002300
:1033100021461C46F1E770BD43685B68D3F8103561
:103320000B600020704743685B68D3F80405424097
:103330000A404240C3F804250020704743685B6898
:103340000020C3F80815704743685B680020C3F885
:103350000C15704743685A68D2F804354B40C2F8E0
:10336000043500207047C368586830B558B1002450
:10337000814213D108685CB99C685860A14200D1B1
:1033800098600020086072B9002030BD2846EFE741
:1033900020609868814208BF9C60F2E70568044697
:1033A000002DF3D13AB15A680A6098685960002834
:1033B000EAD19960E9E76FF01500E6E7C368D3E961
:1033C00005212DE9F041DC68D0F804801B690A432F
:1033D00024EA0204D8F80420D2F810555D4024EA0B
:1033E00005050126002714B92846BDE8F0813442BE
:1033F0000AD098F8083007F01F00002140EA431077
:10340000FEF75CF824EA060401377600EBE72DE9C5
:10341000F041C768D0F80480FC68D7E9053213434F
:1034200024EA0304012600250CB9BDE8F0812642F8
:1034300010D0396998F80830E94001F00101C1F174
:10344000030105F01F00C9B240EA4310FEF736F849
:1034500024EA060401357600E6E7C2680B4692E8E6
:10346000030083E803000020704700F5E0704FF090
:10347000A043032243F820207047C2680B4692E81D
:10348000030083E803000020704743681B68D3F8FB
:103490008004C3F8800470474368C2681B68D3F88F
:1034A000100148B1127B0A700020C3F81001D3F854
:1034B000102101221A6070474FF0FF3070472DE94C
:1034C000F34143688DF807101C68C66800F03EF9A8
:1034D000B8BB642506F108074FF00108BFF35B8F06
:1034E00057E8003F002B03D147E80082002AF7D1BC
:1034F000BFF35B8F07D021200021013DFFF7B0F91A
:1035000015F0FF05EAD10023C4F82031D4F82031AA
:103510000DF10703C4F844350123C4F848354FF4CE
:103520007A75A360D4F8203123B9012000F00DF89A
:10353000013DF7D10123E3600023B36002B0BDE891
:10354000F0810123B360DEE7004700F005B900F128
:1035500080431A68002A1FBF00221A601B680120DE
:1035600008BF0020704708B5FEF714FDBDE808400D
:10357000FEF7E6BC4FF02002EFF3118382F31188CF
:10358000BFF36F8FFEE708B5FFF7F4FFF8B5054608
:103590000E464FF02003EFF3118783F31188BFF33A
:1035A0006F8FFFF77DF9314604462846FFF7EBFFA2
:1035B00087F31188BFF36F8F2046BDE8F840FDF711
:1035C0000BBEFFF70FBE034620B9EFF305820AB921
:1035D000FDF7ECBB83F31188BFF36F8F70474FF09B
:1035E0002003EFF3118083F31188BFF36F8FFFF790
:1035F000EABF03460068834203D0002838BF00209A
:1036000070470020704710B54FF02003EFF311848E
:1036100083F31188BFF36F8FFEF7E8FE84F3118800
:10362000BFF36F8F10BD38B550F8103C0446A0F1C1
:103630001801C3B14FF02003EFF3118583F3118814
:10364000BFF36F8F50F8100CFEF77AFE14F80B3CA6
:1036500023F0020304F80B3C002344F8103C85F3EC
:103660001188BFF36F8F14F80B3C23F0140304F898
:103670000B3C0846BDE83840FFF7C5BF10B54FF01A
:103680002003EFF3118483F31188BFF36F8FFFF7EB
:103690000BF884F31188BFF36F8F10BD38B5044663
:1036A0000D46FFF701F8637B43F002036373C5B176
:1036B0002B68A5609D4208BF0023002B38BF002364
:1036C00083B194F90E1093F90E20914204DB6A68DD
:1036D0009A4207D01B68F3E75A68C4E900321460C5
:1036E0005C6038BD6B6863606B6825601C606C60F3
:1036F000F7E738B54FF02003EFF3118283F3118819
:10370000BFF36F8FFFF775FF044682F31188BFF395
:103710006F8FC8B14FF02003EFF3118583F3118849
:10372000BFF36F8F01468068FEF70AFE637B23F0CC
:10373000020363730023A36085F31188BFF36F8FC7
:1037400004F1180000F00AF8204638BDEFF30580B8
:10375000003818BF01207047FDF72EBE10B54FF09E
:103760002002EFF3118482F31188BFF36F8F036897
:103770003BB1FFF77DF9002084F31188BFF36F8F11
:1037800010BD6FF01500F7E710B54FF02003EFF311
:10379000118483F31188BFF36F8FFFF783F984F3EC
:1037A0001188BFF36F8F10BD70B504460D464FF002
:1037B0002003EFF3118683F31188BFF36F8FFFF7B8
:1037C00071F9012805DDA04203DD29462046FDF7F9
:1037D00041FA86F31188BFF36F8F70BD08B5FFF70C
:1037E00071FA08BD10B400F10C04C0E9034410BC28
:0637F000FFF700BC70476A
:0237F600FFFFD3
:0837F80038C9FF7F0100000049
:103800008913000000000000EB3100000000000000
:10381000F92C0000000000000D1300000000000063
:10382000D90900002C000020C51900003C00002030
:10383000D91B00004C000020E1080000000000003F
:10384000010C00005C000020CD1300007C00002073
:08385000CD1300006C00002004
:10385800673500004935000000000000F531000020
:1038680000000000F531000000000000F531000004
:1038780000000000F531000000000000F5310000F4
:1038880000000000C516000000000000F53100002F
:1038980000000000F531000000000000F5310000D4
:1038A80000000000F531000000000000F5310000C4
:1038B80000000000F531000000000000F5310000B4
:1038C80000000000F531000000000000F5310000A4
:1038D80000000000F531000000000000D50B0000DA
:1038E80000000000F531000000000000F531000084
:1038F80000000000F531000000000000F531000074
:1039080000000000F531000000000000F531000063
:1039180000000000F531000000000000F531000053
:1039280000000000F531000000000000F531000043
:1039380000000000F531000000000000F531000033
:1039480000000000F531000000000000F531000023
:1039580000000000F531000000000000F531000013
:1039680000000000F531000000000000F531000003
:1039780000000000F531000000000000F5310000F3
:1039880000000000F531000000000000F5310000E3
:1039980000000000F531000000000000F5310000D3
:1039A80000000000F531000000000000F5310000C3
:1039B80000000000F531000000000000F5310000B3
:1039C80000000000F531000000000000F5310000A3
:0839D800FFFFFFFFFFFFFFFFEF
:1039E0000338FDD870470000210B00007F31000034
:1039F000A7310000000000009B3000008D0A00008D
:103A0000F50A00005F310000593100007D09000017
:103A1000350900000000000002000000203A00000C
:103A2000000000001D3B00002600020700000020EF
:103A3000253B000022000B11FD130000193300008C
:103A4000273300003D3300004933000055330000A8
:103A5000E91400006733000000000000FFFFFFFFD3
:103A60000000005000000000FFFF000000030050B5
:103A7000010000008117000025190000A5170000B3
:103A8000B51700005B34000099340000BF3400001B
:103A90008B340000311A00007B34000000800240AB
:103AA00000000000003800004038000048380000E6
:103AB0005838000058380000F5FFFFFF6E72663579
:103AC00032383430646B5F6E7266353238343000B1
:103AD00048656C6C6F20576F726C64212025730AE7
:103AE00000303132333435363738396162636465DA
:103AF0006600554152545F3000434C4F434B0073B6
:103B000079735F636C6F636B005465726D696E618E
:103B10006C005254540053454747455200464C41AF
:103B200053485F30005352414D5F30004750494F7A
:103B30005F31004750494F5F3000554152545F316B
:103B400000010000007A65706879722D76322E339C
:103B50002E302D323239382D67323133646266337C
:103B60006564376338002A2A2A20426F6F74696EB1
:103B700067205A6570687972204F53206275696CAE
:103B800064202573202573202A2A2A0A006D616982
:043B90006E000000C3
:103B9400592D0000DF32000000C2010000010300C3
:103BA40000C201000001030000000000000000004A
:0C3BB4000090D00324000020240000201A
:103BC000F93A0000FC390000E8390000D401002077
:103BD000F23A000000000000743A000008000020E3
:103BE0003A3B00009C3A0000883A00001000002098
:103BF000FF3A00000000000000000000000000008C
:103C0000333B00005C3A0000383A0000D802002044
:103C10002C3B0000683A0000383A0000F402002013
:103C20008C0000208C00002000000000000000003C
:103C30000F000000A0000020A000002000000000F5
:083C4000000000000F0000006D
:0400000300000FD119
:00000001FF
